:020000001728BF
:100008007E14803120007F08F1008B190B1C122808
:10001800270093010130F0007008F50071082000F6
:10002800FF007E1009001828F5017E1020001C280A
:100038006E206020F5016430F2007208F4002000A0
:100048008E102130F3007630F200F20B2928F30BE2
:10005800292800002130F3007630F200F20B322814
:10006800F30B3228000020008E147503031D392875
:1000780020008E102130F3007630F200F20B422877
:10008800F30B4228000020008E14F50139282200C5
:100098008C018E0123008C010F308E003F3024002C
:1000A8008C003F308E007D3021008E007F308C0028
:1000B800951322009D010800270091010430920049
:1000C8008B150B178B1708003A30210099009A01FD
:0A00D800980108004B206820080082
:020000040001F9
:04000E00E4D9FFDA58
:00000001FF
