:020000040000FA
:040000004EEF00F0CF
:100008005782FACF05F0FBCF06F0D9CF07F0DACF49
:1000180008F0F2B6F2A003D0B8EC04F031D0F2AC9C
:100028002FD09DB09EA003D0BDEC03F029D09DBC7D
:100038009EAC0CD06FEC04F001C02BF002C02CF089
:100048003A2A010E396ECBEC04F01AD09DB89EA85E
:1000580008D001D815D00500FA6E5150FD6E5250E7
:100068000AD09DBA9EAA0CD001D80AD00500FA6E13
:100078004F50FD6E5050FE6EF850FF6EFA50120051
:1000880008C0DAFF07C0D9FF06C0FBFF05C0FAFFAA
:080098005792110076EF03F00E
:1002000000656E74657220776C616E207061737327
:10021000776F72643A0A0041542B43495053455258
:100220005645523D312C38300D0A00656E746572AA
:1002300020776C616E206E616D653A0A0041542B27
:1002400043574D4F44453D310D0A0041542B43491E
:10025000504D55583D310D0A004C6F67676572204F
:1002600056312E300A0062756666657220657272BC
:100270006F720041542B43495053454E443D004159
:10028000542B43574A41503D220053454E4420468B
:1002900041494C0053454E44204F4B00434F4E4E76
:1002A00045435400626D6F64650A00746D6F646548
:1002B0000A00434C4F534544004552524F520041AF
:1002C000540D0A002B495044004F6B0A00220D0ABE
:1002D00000222C2200434800434C002C003A00002E
:1002E0002BC027F02CC028F0396A2F501AE12D506E
:1002F000A00FD96EDA6A27C0DFFF2D2A2D50A00F7C
:10030000D96EDA6A28C0DFFF2D2A400E2D18D8A436
:100310001200A00E0A6E400E0B6E0CEC04F02D6A5B
:1003200012002750156E2850166E176A186AE40ED0
:100330001502F3CF19F0F4CF1AF01B6A1C6A1602EB
:10034000F3501A26F4501B22000E1C220C0E15022C
:10035000F3501A26F4501B22000E1C22E40E170242
:10036000F3501B26F4501C220C0E1602F3501B26D1
:10037000F4501C22000E1502F3501B26F4501C22D0
:10038000E40E1802F3501C260C0E1702F3501C2624
:10039000000E1602F3501C26000E1502F3501C2608
:1003A00019C023F01AC024F01BC025F01CC026F091
:1003B00023C015F024C016F025C017F026C018F091
:1003C0000B0E05D0D8901832173216321532E82E9F
:1003D000F9D715C027F016C028F01D0E106E27C0E3
:1003E00011F028C012F0FDEC01F00A0E226E1D0E75
:1003F0000A6E060E0B6E0CEF04F011C009F012C06D
:100400000AF00C6A0A0E0B6E1BEC03F009C013F025
:100410000AC014F011C009F012C00AF00C6A0A0EEA
:100420000B6ED6EC02F009C011F00AC012F01050A9
:10043000D96EDA6A050ED926DF6A1050D96EDA6AEB
:10044000040ED9261350300FDF6E11C009F012C010
:100450000AF00C6A0A0E0B6E1BEC03F009C013F0D5
:100460000AC014F011C009F012C00AF00C6A0A0E9A
:100470000B6ED6EC02F009C011F00AC012F0105059
:10048000D96EDA6A030ED9261350300FDF6E11C011
:1004900009F012C00AF00C6A0A0E0B6E1BEC03F096
:1004A00009C013F00AC014F011C009F012C00AF01C
:1004B0000C6A0A0E0B6ED6EC02F009C011F00AC0ED
:1004C00012F01050D96EDA6A020ED9261350300F8E
:1004D000DF6E1050D96EDA6AD92A2E0EDF6E1050F8
:1004E000D96EDA6A1150300FDF6E120058EC04F04A
:1004F0003AEC03F0F28EF28C898A110E2A6E3C0ED1
:10050000296ECB0EE82EFED7292EFCD72A2EFAD73D
:1005100000F0899A110E2A6E3C0E296ECB0EE82E41
:10052000FED7292EFCD72A2EFAD700F0C7EC04F00C
:10053000000902E099EC04F0390402E170EC01F0EA
:10054000330402E179EC04F00400F0D70F6E14D00C
:10055000C90E0A6E59EF03F02E0401E11200C1EC3E
:1005600004F0010E2E6E010CBFEC04F02E6A120096
:10057000899A1200898A12000F500D6E0E6A0E5071
:10058000D8A412000D504F0AF5E01C0AEDE0070A4E
:1005900002E164EF04F0350A02E1C3EF04F00E0A51
:1005A000E7E01C0AD9E0070AD3E012000D6A0E6AE0
:1005B0000B500C101BE0010E0F6E04D0D8900B36C0
:1005C0000C360F2A0CAEFAD7D8900D360E360B50DB
:1005D000095C0C500A5805E30B50095E0C500A5A8E
:1005E0000D80D8900C320B320F2EEED70DC009F0D3
:1005F0000EC00AF012009D9AF20E096E070E0A6EE6
:10060000AEEC04F09D983C0E096E080E0A6EA9EC43
:1006100004F0080EB86E900EAB6E240EAC6E8A0E0F
:10062000AF6EB06A386A376A400E566E366A356AFF
:10063000346A9D8A12000B500C1017E0010E0D6EEB
:1006400004D0D8900B360C360D2A0CAEFAD70B50CE
:10065000095C0C500A5804E30B50095E0C500A5A0E
:10066000D8900C320B320D2EF2D709C009F00AC017
:100670000AF012002F6A020E4CEC04F0396A2B6A61
:100680002C6A3A6ABFEC04F02E6A660E096E090EF7
:100690000A6E9FEC04F0240E096E090E0A6EA4EC9B
:1006A00004F0336A010E556E4C0E096E050E0A6E8B
:1006B00012000C6A10D0BDEC04F00009FCE00A50F6
:1006C0000C240B6E0BC0F6FF020EF76E0800F550FF
:1006D0008FEC03F00C2A0A500C240B6E0BC0F6FFB3
:1006E000020EF76E0800F550E6E1120001EE00F090
:1006F000400EEE6AE806FDE100EE60F0800EEE6A64
:10070000E806FDE100EE2BF0200EEE6AE806FDE1C2
:1007100057905792000EF86E000176EF02F0096EC6
:100720005650FEE09DB803D009C0ADFF0DD09D9896
:100730003850600FD96EDA6A09C0DFFF382A3F0EE1
:10074000386401D0386A56069D881200896A8A6A20
:100750008B6A170E926E700E936E94687F967E96DB
:10076000786A100E776EF19E79889E0E096E090EDA
:100770000A6EA4EC04F0F28612009E904DC001F0C7
:100780004EC002F030EC04F04B504C10D8B41200C4
:100790000500FA6E4B50FD6E4C50FE6EF850FF6E29
:1007A000FA5012003450FEE0000E3524D96EDA6A99
:1007B000010EDA22DF50096E352A3F0E356401D072
:1007C000356A9D9A34069D8A09501200630ECF6ED9
:1007D000C00ECE6ECECF4DF0CFCF4EF09E909D800E
:1007E0009C0E096E090E0A6E9FEC04F0210ECD6E70
:1007F000210CABA202D0AB98AB88000E3624D96E88
:10080000DA6A010EDA22AECFDFFF362A3F0E3664F7
:1008100001D0366A342A12000C6A0CD0BDEC04F008
:100820000009FCE00A500C24D96EDA6ADF508FEC24
:1008300003F00C2A0B500C5CF1E31200400E5660E2
:100840000DD03750600FD96EDA6ADF50AD6E372A9F
:100850003F0E376401D0376A562A12009D98120065
:10086000CDA407D0CD9002C0CFFF01C0CEFFCD8078
:10087000120002C0CFFF01C0CEFF1200535054102F
:10088000D8B412000500FA6E5350FD6E5450FE6E3F
:10089000F850FF6EFA5012000A6E0AC009F00946BD
:1008A0000946C2500918C30B0918C26EC280120053
:1008B000C5EC04F0A6EC03F08BEC04F082EC04F041
:1008C000E6EC03F0FBEF02F02F5004E1010E2F6E77
:1008D000AB0E02D02F6AA40E0A6E59EF03F0C4507B
:1008E000046E036AC3500324016E000E0420026EDE
:1008F0001200336A555002E0D50E01D0D80E0A6EB0
:1009000059EF03F0010EC26EC16A870EC06EC36A52
:10091000C46A9D8C1200700ED36E040ED26E400E0F
:100920009B6E400C000E80B8010E556E010E336EAA
:10093000010CD2EC03F0106E1050A6EF02F009C0CB
:100940004BF00AC04CF0120009C053F00AC054F03A
:10095000120009C051F00AC052F0120009C04FF055
:100960000AC050F012002E04D8B4C9EC04F01200F2
:1009700079B83EEC04F0F290120056501200CD907F
:100980001200CD801200C2821200D09E120034509C
:100990001200C28212009E9C12001200120012006D
:020000040020DA
:08000000FFFFFFFFFFFFFFFF00
:020000040030CA
:0E000000FF281F1EFF8881FF03C003E003409E
:00000001FF
