:020000040000FA
:0400000080312B28F8
:1000060008007E1480310B1F09280A2829284E0172
:10001600191E0E280F281A280F1E122813281A2810
:1000260043015A088A0059080A0080312928991E76
:100036001D281E2829288F1E212822282928430109
:1000460058088A0057080A00803129287E100900BE
:1000560080312D28FC014201EB01EC01ED01EE019E
:10006600A0308400013085003130A7312627803149
:1000760020308400023085005030A7312627803199
:10008600A0308400023085004030A7312627803119
:100096007E1040019A31F92A4101C300C401C5010D
:1000A6002308D9002208D8002108D7002008D60046
:1000B60059084001C300410158084001C2004101EE
:1000C60057084001C100410156084001C0000030F8
:1000D600C7000030C6000030C5000030C4009E31A5
:1000E600C8268031031878287928922801304101E2
:1000F600C4000030C5005908F4005808F30057083A
:10010600F2005608F100A7315227803174084101E8
:10011600D9007308D8007208D7007108D6004101CB
:10012600DC01DD0143014B084101C90043014A08D6
:100136004101C80044084504031DA228A328A82895
:1001460043014E1DA728A828C62841014408450496
:10015600031DAE28AF28B4282B30A9000030AA0012
:10016600B8282D30A9000030AA002908A5002508C6
:100176004401A00001304101DC070030DD3DFF30C5
:10018600C807FF30C93D41015908F4005808F3007B
:100196005708F2005608F1009031002080317103B3
:1001A6007204031DD728D8282A2941012408BF3EF6
:1001B600A500FF3003180030A600003026021A30D2
:1001C60003192502031CE828EA280130EB28003031
:1001D600A700A8012708AB002808AC002B082C04B0
:1001E6000319F628F72801291330F100A830F20088
:1001F6005C08203E98317C2080310A291B30F100B2
:10020600A830F2005C08203E98317C208031FD3019
:100216004101C807FF30C93D2030A500250840012F
:10022600A700410149084001A900410148084001D1
:10023600A800410143089D31252580314001280849
:100246004101A100400127084101A000A32F41015F
:100256005908F4005808F3005708F2005608F10050
:1002660090310020803171087204031D3B293C291E
:100276008E2941012408BF3EA500FF300318003037
:10028600A600003026021A3003192502031C4C2949
:100296004E2901304F290030A700A8012708AD00DC
:1002A6002808AE002D082E0403195A295B29652952
:1002B6001730F100A830F2005C08203E98317C200F
:1002C60080316E291F30F100A830F2005C08203E14
:1002D60098317C208031FD304101C807FF30C93D8F
:1002E6002030A50025084001A7004101490840012A
:1002F600A900410148084001A800410143089D3179
:1003060025258031400128084101A1004001270828
:100316004101A000A32F3F304101E1008030E00001
:100326000030DF000030DE00DA01DB015908F4009E
:100336005808F3005708F2005608F1000030F8009C
:100346000030F7000030F6000030F5009C312D2417
:1003560080310318AF29B029742AE12941304001C0
:10036600A9002030A8000030A7000030A6004101F7
:1003760061084001AD00410160084001AC00410147
:100386005F084001AB0041015E084001AA009531BB
:10039600A9258031400129084101E10040012808D2
:1003A6004101E000400127084101DF004001260825
:1003B6004101DE000130DA070030DB3D410159081A
:1003C6004001C300410158084001C20041015708DD
:1003D6004001C100410156084001C0004130A9005A
:1003E6002030A8000030A7000030A60041016108B7
:1003F6004001AD00410160084001AC0041015F08C9
:100406004001AB0041015E084001AA009531A925D3
:10041600803140012908C7002808C6002708C50002
:100426002608C4009E31C826803103181B2A1C2AC0
:10043600B1294D2A41304001C3002030C2000030AE
:10044600C1000030C000410161084001C700410100
:1004560060084001C60041015F084001C500410136
:100466005E084001C4009331F52380314001430802
:100476004101E100400142084101E000400141081C
:100486004101DF00400140084101DE00FF30DA078C
:10049600FF30DB3D410159084001C30041015808C6
:1004A6004001C200410157084001C1004101560800
:1004B6004001C000410161084001C70041016008D8
:1004C6004001C60041015F084001C50041015E08C8
:1004D6004001C4009E31C8268031031C732A742A49
:1004E6001D2A41012408A500A6012508F7002608B3
:1004F600F80099310521803177084101A7002708C6
:10050600CB004B08A5002508CA0067304B06031D23
:100516008D2A8E2AB72A43014C084D04031D942ABE
:10052600952A992A0130CC000030CD004D08803A3A
:100536004101A50080302502031DA42A0130430194
:100546004C020318A72AA82AAE2A06304101C60083
:100556000030C700BD2A43014D084101C7004301D1
:100566004C084101C600BD2A4301CD1BBB2ABC2A4B
:10057600A82AAE2A67304B06031DC22AC32AF02AD0
:100586005B08803AA5007F302502031DCC2AFC308B
:100596005A02031CCF2AD02AEB2A41014608FF3E05
:1005A600A500FF30473DA6002608803AA7005B0855
:1005B600803A2702031DE12A5A082502031CE42A71
:1005C600E52AEB2A66304101A5002508CA00F02A73
:1005D60065304101A5002508CA004708BC00460849
:1005E600BB0067304B06031DF92AFA2A042B663036
:1005F6004A06031DFF2A002B082BDB1F032B042BA7
:10060600082B0130BB070030BC3D66304A06031D8F
:100616000D2B0E2B262BDB1F112B122B1C2B3F30E9
:10062600E1008030E0000030DF000030DE00DA015B
:10063600DB0167304B060319212B222B262B5A0888
:10064600BB075B08BC3DD401D5015908CF0058084B
:10065600CE005708CD005608CC006108C0006008DF
:10066600BF005F08BE005E08BD00062C41016108A0
:100676004001C300410160084001C20041015F081A
:100686004001C10041015E084001C00041014F0820
:100696004001C70041014E084001C60041014D0816
:1006A6004001C50041014C084001C4009331F523C7
:1006B600803140014308DD004208DC004108DB00D0
:1006C6004008DA0091312E21803140015D08410158
:1006D600D30040015C084101D20040015B084101A2
:1006E600D10040015A084101D0005308F4005208D5
:1006F600F3005108F2005008F1009D31DD258031EC
:1007060072084101C2007108C10053084001AD00E2
:10071600410152084001AC00410151084001AB00C3
:10072600410150084001AA00410161084001A900A9
:10073600410160084001A80041015F084001A7008F
:1007460041015E084001A6009531A925803140018E
:100756002908C3002808C2002708C1002608C000CF
:1007660041014F084001C70041014E084001C60043
:1007760041014D084001C50041014C084001C4003B
:1007860098313B208031400143084101CF004001B0
:1007960042084101CE00400141084101CD0040011F
:1007A60040084101CC0041304001C3002030C20066
:1007B6000030C1000030C000410161084001C7009F
:1007C600410160084001C60041015F084001C500C3
:1007D60041015E084001C4009331F5238031400198
:1007E60043084101E100400142084101E0004001A7
:1007F60041084101DF00400140084101DE000130AF
:10080600D4070030D53D5508803AA5003C08803A0B
:100816002502031D102C3B085402031C132C142C18
:10082600392B40304001A900A030A8000030A700B5
:100836000030A600410161084001AD004101600899
:100846004001AC0041015F084001AB0041015E0878
:100856004001AA009531A9258031400129084101AE
:10086600D300400128084101D20040012708410178
:10087600D100400126084101D0004F084001C300C5
:1008860041014E084001C20041014D084001C1002E
:1008960041014C084001C000410153084001C70016
:1008A600410152084001C600410151084001C500FE
:1008B600410150084001C4009E31C826803103180A
:1008C600652C662C702C00304101D3000030D2001C
:1008D6000030D1000030D000952C41014F08F400C3
:1008E6004E08F3004D08F2004C08F1005308F800DA
:1008F6005208F7005108F6005008F5009C312D24E7
:100906008031031C872C882C952C410141188C2C96
:100916008D2C952C0030D3000030D2000030D10051
:100926000030D00041015308F4005208F30051088A
:10093600F2005008F1005908F8005808F700570867
:10094600F6005608F500883104208031740841010C
:10095600CF007308CE007208CD007108CC004F0896
:100966004001C30041014E084001C20041014D084B
:100976004001C10041014C084001C0004130A900BE
:100986002030A8000030A7000030A6004101400832
:100996004001AD0041013F084001AC0041013E0865
:1009A6004001AB0041013D084001AA009531A9254F
:1009B600803140012908C7002808C6002708C5005D
:1009C6002608C4009E31C8268031031CEB2CEC2C73
:1009D600272D01304101DA070030DB3D413040016F
:1009E600A9002030A8000030A7000030A600410171
:1009F60040084001AD0041013F084001AC00410103
:100A06003E084001AB0041013D084001AA00953176
:100A1600A9258031400129084101C000400128086C
:100A26004101BF00400127084101BE0040012608E0
:100A36004101BD0066304A06031D222D232D272DB8
:100A46000130BB070030BC3D41014008E1003F08D2
:100A5600E0003E08DF003D08DE0065304A06031967
:100A6600352D362D3B2D5B08BA005A08B9003D2DB1
:100A7600B901BA01B701B801B501B601D401D50172
:100A86007E2E410161084001C3004101600840011A
:100A9600C20041015F084001C10041015E084001FA
:100AA600C00041014F084001C70041014E08400106
:100AB600C60041014D084001C50041014C084001F6
:100AC600C4009331F523803140014308DD0042081C
:100AD600DC004108DB004008DA0091312E2180312C
:100AE60040015D084101D30040015C084101D2008C
:100AF60040015B084101D10040015A084101D00084
:100B06005308F4005208F3005108F2005008F100AF
:100B16009D31DD25803172084101C2007108C10096
:100B260043014E1A972D982DAE2D410141084204DE
:100B3600031D9E2D9F2DAE2D67304B06031DA42D44
:100B4600A52DAE2DBA1FA82DA92DAE2D0130B507A6
:100B56000030B63DFC2D410137083804031DB42D85
:100B6600B52DE42DBA1FB82DB92DE42D2E30A500D4
:100B76005C08203E8600023087002508810001308F
:100B8600DC070030DD3DFF30C807FF30C93D0130CE
:100B9600B7000030B800E42D3030A5005C08203ED8
:100BA600860002308700250881000130DC0700300E
:100BB600DD3DFF30C807FF30C93DFF30B507FF30C8
:100BC600B63D35083604031DE92DEA2DCF2D410823
:100BD600303EA5005C08203E8600023087002508CE
:100BE60081000130DC070030DD3DFF30C807FF30F3
:100BF600C93D53084001AD00410152084001AC0017
:100C0600410151084001AB00410150084001AA00D2
:100C1600410161084001A900410160084001A800A6
:100C260041015F084001A70041015E084001A6009E
:100C36009531A925803140012908C3002808C20042
:100C46002708C1002608C00041014F084001C7001F
:100C560041014E084001C60041014D084001C50052
:100C660041014C084001C40098313B2080314001CD
:100C760043084101CF00400142084101CE00400136
:100C860041084101CD00400140084101CC004130FE
:100C96004001C3002030C2000030C1000030C00057
:100CA600410161084001C700410160084001C600DA
:100CB60041015F084001C50041015E084001C400D2
:100CC6009331F5238031400143084101E1004001A1
:100CD60042084101E000400141084101DF004001B6
:100CE60040084101DE00FF30B907FF30BA3D013050
:100CF600D4070030D53D5508803AA5003C08803A17
:100D06002502031D882E3B08540203188B2E8C2EB9
:100D16009A2E41015D08803AA50080302502031D08
:100D2600962E4B305C02031C992E9A2E442D4101BF
:100D360037083804031DA02EA12EB42E43014E1EE3
:100D4600A52EA62EB42E2E304101A5005C08203E0D
:100D5600860002308700250881000130DC0700305C
:100D6600DD3D41015C08203E86000230870081019E
:100D760065304A06031DC02EC12E882F4F30D40081
:100D86000030D5005408203E8600023087008101DD
:100D9600C401C501DB1FD02ED12EDA2E0130C400CE
:100DA6000030C500DA09DB09DA0A0319DB0A02306A
:100DB600C6000030C700122FFF304101D407FF30B4
:100DC600D53D0A30F1000030F2005B08F4005A0805
:100DD600F3009C317C2480317108303E4101A5002E
:100DE6005408203E860002308700250881000A301C
:100DF600F1000030F2005B08F4005A08F3009D3160
:100E06007E25803172084101DB007108DA00FF306F
:100E1600C607FF30C73DFF30C807FF30C93D5A0837
:100E26005B04031D172F182FDF2E4708803AA500F5
:100E360080302502031D212F013046020318242F7E
:100E4600252FDF2EFF304101D407FF30D53D440862
:100E56004504031D2F2F302F352F2B30AF000030C8
:100E6600B000392F2D30AF000030B0002F08A5009C
:100E76005408203E86000230870025088100FF3096
:100E8600C807FF30C93DFF30D407FF30D53D2408E1
:100E9600BF3EA500FF3003180030A6000030260232
:100EA6001A3003192502031C592F5B2F01305C2FC2
:100EB6000030A700A8012708B3002808B4003308AB
:100EC6003404031D672F682F6D2F6530B100003085
:100ED600B200712F4530B1000030B2003108A500D4
:100EE6005408203E86000230870025088100FF3026
:100EF600C807FF30C93D5408203EF1000230F20019
:100F06005C08203E98317C20803120304101A500CC
:100F160025084001A700410149084001A9004101F7
:100F260048084001A800410143089D31252580312C
:100F3600400128084101A100400127084101A00005
:100F46000800F6007608F5007508F9007208F80042
:100F56007108F7000130F3020030F43B730A031DF9
:100F6600B82F740A031DB82FB92FC82FF101F2014B
:100F7600FE2F0130F5007508F9070130F70700303C
:100F8600F83D0130F3020030F43B79088600013069
:100F9600870001080319D02FD12FF02F770884007E
:100FA6007808850012000319D92FDA2FF02F73085D
:100FB60074040319DF2FE02FF02F770884007808D8
:100FC60085000008F50079088600013087000108D1
:100FD60075060319EF2FF02FBC2F79088600013014
:100FE6008700770884007808850000080102F10070
:100FF600F201031CF2030800080042011D121D162F
:101006000800740880394001A0002008A800743543
:10101600A0002008AA00F31F1128122813282A145A
:101026002A0803191728182828282A0A031D1C2805
:101036001D2825280030F4000030F3000030F200AF
:101046000030F100F317F40130280030F4000030CE
:10105600F3000030F2000030F10078088039A0007B
:101066002008A9002908280603193A283B283C2805
:1010760028177835A0002008A900F71F4328442820
:10108600452829142908031949284A285A28290ACB
:10109600031D4E284F2857280030F8000030F7006F
:1010A6000030F6000030F500F717F801622800302E
:1010B600F8000030F7000030F6000030F5002A088E
:1010C6002902031867286828AC28281F6B286C2873
:1010D60070288030A0002008A8062A08A000200852
:1010E600AB002908A0002008AA002B08A0002008B1
:1010F600A9007108A0002008AB007508A000200810
:10110600F1002B08A0002008F5007208A0002008B6
:10111600AB007608A0002008F2002B08A0002008EB
:10112600F6007308A0002008AB007708A00020088E
:10113600F3002B08A0002008F7007408A000200880
:10114600AB007808A0002008F4002B08A0002008B7
:10115600F800AB012908A000A1012108A3002A0874
:101166002002A200031CA3032308803AA4008030B7
:101176002402031DC0281A302202031CC328C428D7
:10118600FC287408730472047104031DCB28CD284F
:101196000130CE2800304001A0002008AB0000300E
:1011A600F4000030F3000030F2000030F1002908AE
:1011B600A0002008AA0003292B1CE228E328E9281E
:1011C6002B360138A0002008AB00EB280310AB0C2F
:1011D600711CEE28EF28F028AB170130A000F43779
:1011E600F30CF20CF10CA00BF2280130A000200841
:1011F600AA07400129082A02031C02290329DF281D
:10120600281B062907293F292A08031D0B290C2913
:1012160015290030F4000030F3000030F2000030F1
:10122600F1003B2A7508F1077608F23D7708F33D91
:101236007808F43D741C20292129CB292B1C24294C
:1012460025292B292B360138A0002008AB002D2993
:101256000310AB0C711C302931293229AB17013030
:10126600A000F437F30CF20CF10CA00B342901307A
:10127600A0002008AA07CB297408803AA0007808A5
:10128600803A2002031D512977087302031D512954
:1012960076087202031D5129750871020318542934
:1012A60055298D29FF30A000FF30A100FF30A20094
:1012B600FF30A30071087502A4007208763BA500F2
:1012C6007308773BA6007408783BA7002408A0079C
:1012D6002508A13D2608A23D2708A33D2308F400C2
:1012E6002208F3002108F2002008F1008030A00057
:1012F6002008A806AB09AB0A2B08031D83298429FD
:1013060095290130F1070030F23D0030F33D003001
:10131600F43D95297508F1027608F23B7708F33B10
:101326007808F43B7408730472047104031D9C2945
:101336009D29C7292B08031DA129A229C7290030E9
:10134600F4000030F3000030F2000030F1003B2AD8
:101356000130F135F20DF30DF40D890BAC29AB1FFD
:10136600B529B629B72971142B1CBA29BB29BE2960
:101376000314AB0DC0290310AB0D2A080319C429A9
:10138600C529C7290130AA02F31FCA29CB29AB29CF
:10139600A901AB1FCF29D029DE292B087F390319D4
:1013A600D529D629D929A901A90ADE29711CDC2942
:1013B600DD29DE29D62929080319E229E329102A7D
:1013C6000130F1070030F23D0030F33D0030F43DCE
:1013D600741CEE29EF29102A7108A0007208A100DA
:1013E6007308A2007408A3000130A400A337A20C5E
:1013F600A10CA00CA40BF9292308F4002208F30081
:101406002108F2002008F1002A0A03190B2A0C2AE7
:10141600102A0130A0002008AA072A0A0319142A54
:10142600152A1A2A2A08031D192A1A2A282A0030D8
:10143600F4000030F3000030F2000030F1002A081A
:10144600031D262A272A282AA8012A1C2B2A2C2AE9
:101456002E2AF317322A7F30A0002008F3052A36F9
:10146600A0002008F400A81F392A3A2A3B2AF417BC
:1014760008004C30F300A030F4009931D5218A31B0
:1014860003304201C0000830BF007730890B492A7B
:10149600BF0B492AC00B492AF430F300A030F400F0
:1014A6009931D5218A3103304201C0000830BF008E
:1014B6007730890B5C2ABF0B5C2AC00B5C2A0E3086
:1014C600F300A130F4009931D5218A31033042016D
:1014D600C0000830BF007730890B6F2ABF0B6F2A18
:1014E600C00B6F2A4C30F300A030F4009931D5219F
:1014F6008A3103304201C0000830BF007730890BC3
:10150600822ABF0B822AC00B822A2C30F300A0301D
:10151600F4009931D5218A3103304201C0000830E8
:10152600BF007730890B952ABF0B952AC00B952AE9
:101536001030A7315D278A3172084201E500710833
:10154600E40045304001C3008030C2000030C100D5
:101556000030C0003F30A900E630A8006630A70082
:101566006630A60042016408F1006508F200F30146
:10157600F40100309F3153278A3174084001AD00D1
:101586007308AC007208AB007108AA009531A92552
:101596008A3140012908C7002808C6002708C50067
:1015A6002608C4009331F5238A31400143084201DD
:1015B600E200400142084201E100400141084201C7
:1015C600E000400140084201DF006A30AF00A03071
:1015D600B0006208B4006108B3006008B2005F089A
:1015E600B10041309A3190228A3142012F08BF0062
:1015F6003F08E3004130F3000130F4006308BF0008
:101606003F08F50098319D208A3103304201C00021
:101616000830BF007730890B0E2BBF0B0E2BC00B8B
:101626000E2B0630A7315D278A3172084201E5008C
:101636007108E40045304001C3008030C20000302C
:10164600C1000030C0003F30A900E630A800663077
:10165600A7006630A60042016408F1006508F200A2
:10166600F301F40100309F3153278A317408400199
:10167600AD007308AC007208AB007108AA00953182
:10168600A9258A3140012908C7002808C60027086D
:10169600C5002608C4009331F5238A31400143086A
:1016A6004201E200400142084201E10040014108D6
:1016B6004201E000400140084201DF008730AF00F0
:1016C600A030B0006208B4006108B3006008B20040
:1016D6005F08B10041309A3190228A3142012F08C9
:1016E600BF003F08E3004130F3000130F400630817
:1016F600BF003F08F50098319D208A310330420132
:10170600C0000830BF007730890B872BBF0B872BB3
:10171600C00B872B0730A7315D278A31720842013B
:10172600E5007108E40045304001C3008030C20086
:101736000030C1000030C0003F30A900E630A800EC
:101746006630A7006630A60042016408F10065080D
:10175600F200F301F40100309F3153278A317408F7
:101766004001AD007308AC007208AB007108AA0016
:101776009531A9258A3140012908C7002808C600E5
:101786002708C5002608C4009331F5238A31400195
:1017960043084201E200400142084201E1004001E3
:1017A60041084201E000400140084201DF00D93013
:1017B600AF00A030B0006208B4006108B300600852
:1017C600B2005F08B10041309A3190228A3142015D
:1017D6002F08BF003F08E3004130F3000130F4005A
:1017E6006308BF003F08F50098319D208A31033019
:1017F6004201C0000830BF007730890B002CBF0BB8
:10180600002CC00B002C0530A7315D278A317208E9
:101816004201E5007108E40045304001C300803014
:10182600C2000030C1000030C0003F30A900E630E1
:10183600A8006630A7006630A60042016408F100E1
:101846006508F200F301F40100309F3153278A3115
:1018560074084001AD007308AC007208AB00710853
:10186600AA009531A9258A3140012908C700280810
:10187600C6002708C5002608C4009331F5238A311F
:10188600400143084201E200400142084201E100F2
:10189600400141084201E000400140084201DF00EA
:1018A600BE30AF00A030B0006208B4006108B300DB
:1018B6006008B2005F08B10041309A3190228A3147
:1018C60042012F08BF003F08E3004130F30001301A
:1018D600F4006308BF003F08F50098319D208A3167
:1018E60003304201C0000830BF007730890B792CE5
:1018F600BF0B792CC00B792C0430A7315D278A31B8
:1019060072084201E5007108E40045304001C30059
:101916008030C2000030C1000030C0003F30A90056
:10192600E630A8006630A7006630A60042016408CB
:10193600F1006508F200F301F40100309F315327EE
:101946008A3174084001AD007308AC007208AB0020
:101956007108AA009531A9258A3140012908C700D6
:101966002808C6002708C5002608C4009331F523B9
:101976008A31400143084201E20040014208420127
:10198600E100400141084201E000400140084201F7
:10199600DF00A330AF00A030B0006208B4006108D9
:1019A600B3006008B2005F08B10041309A3190225E
:1019B6008A3142012F08BF003F08E3004130F3009F
:1019C6000130F4006308BF003F08F50098319D2000
:1019D6008A3103304201C0000830BF007730890BDE
:1019E600F22CBF0BF22CC00BF22C1030A7315D2766
:1019F6008A3108004201AE0040016E088600870168
:101A0600403F4101E200413FE30062088400630871
:101A160085001200253A031D112D122DD82F4001E5
:101A26006E08860087010130810741310318810A5B
:101A36004301CA01CB01CE01CF01FF30CC00FF30FC
:101A4600CD0040016E0886008701403F4101E2005B
:101A5600413FE300620884006308850012002A3AC9
:101A6600031D362D372D5A2D40016E08860087013D
:101A76000130810741310318810A6F088600013061
:101A86008700010884000130850002308107003F8D
:101A96004301CA00013FCB00CB1F522D532DA22D6F
:101AA6004E14CA09CB09CA0A0319CB0AA22D400152
:101AB6006E0886008701403FF700413FF8009031ED
:101AC6007F208C3178084301CB007708CA00742D3B
:101AD60040016E08860087010130810741310318F5
:101AE600810A40016E0886008701403F4101E200FD
:101AF600413FE30062088400630885000008D03E89
:101B0600E400FF3003180030E500003065020A30BB
:101B160003196402031C902D922D0130932D003081
:101B2600E600E70166084201A0004101670842019C
:101B3600A10020082104031DA12DA22D6B2D40011B
:101B46006E0886008701403F4101E200413FE30005
:101B5600620884006308850012002E3A031DB42D26
:101B6600B52D342E4301CC01CD0140016E0886000F
:101B760087010130810741310318810A6E0886000A
:101B86008701403F4101E200413FE30062088400D3
:101B96006308850012002A3A031DD22DD32DEC2DA1
:101BA60040016E0886008701013081074131031824
:101BB600810A6F0886000130870001088400013021
:101BC600850002308107003F4301CC00013FCD0074
:101BD600342E40016E0886008701403FF700413FE2
:101BE600F80090317F208C3178084301CD007708CA
:101BF600CC00062E40016E08860087010130810761
:101C060041310318810A40016E0886008701403F72
:101C16004101E200413FE300620884006308850059
:101C26000008D03EE400FF3003180030E500003025
:101C360065020A3003196402031C222E242E013089
:101C4600252E0030E600E70166084201A2004101A8
:101C560067084201A30022082304031D332E342EF5
:101C6600FD2D40016E0886008701403F4101E200DC
:101C7600413FE30062088400630885000008E40031
:101C8600E5016408F7006508F800993105218C31F3
:101C960077084101E60066084201A60026080319F6
:101CA600552E562E9B2E40016E0886008701403F1A
:101CB6004101E200413FE30001306207840063080E
:101CC6000318630A85000008E400E5016408F700CC
:101CD6006508F800993105218C3177084101E60045
:101CE60066084201A700270803197A2E7B2E9B2E31
:101CF60040016E0886008701403F4101E200413FF6
:101D0600E30002306207840063080318630A850053
:101D16000008E400E5016408F7006508F800993159
:101D260005218C3177084101E60066084201A800CA
:101D360066302606031DA02EA12EF22E40016E0847
:101D460086008701403F4101E200413FE30062080F
:101D56008400630885000008E40064084201AD00C1
:101D660040016E0886008701013081074131031862
:101D7600810A6F088600013087000108840001305F
:101D8600850004308107003F4201A900013FAA00F7
:101D9600023FAB00033FAC002C084101A300420107
:101DA6002B084101A20042012A084101A10042017B
:101DB60029084101A00042012D084101E200620804
:101DC600A40042012E0880314F208C3141012108A8
:101DD6004001EF00410120084001EE00FF2F2330B3
:101DE600F100A830F2000230F3000030F400263093
:101DF6008731A4278C3171087204031D032F042F29
:101E06009D2F40016E0886008701403F4101E20098
:101E1600413FE30001306207840063080318630A48
:101E260085000008E40064084201AD0040016E0828
:101E360086008701403F4101E200413FE30062081E
:101E46008400630885000008BF3EE400FF300318E5
:101E56000030E500003065021A3003196402031CE5
:101E6600352F372F0130382F0030E600E70166089E
:101E76004201A400410167084201A5002408250487
:101E86000319462F472F5C2F40016F08860001304B
:101E96008700010884000130850004308107003F77
:101EA6004201A900013FAA00023FAB00033FAC007C
:101EB600702F40016F0886000130870001088400FA
:101EC6000130850004308107003F4201A900013F2F
:101ED600AA00023FAB00033FAC0040016E0886003B
:101EE60087010230810741310318810A42012C081B
:101EF6004101A30042012B084101A20042012A0828
:101F06004101A100420129084101A00042012D081A
:101F16004101E2006208A40042012E0880314F20F0
:101F26008C31410121084001EF00410120084001A8
:101F3600EE00FF2F40016E0886008701403F4101F9
:101F4600E200413FE3006208840063088500120056
:101F5600253A031DAF2FB02FCC2F40016E08860007
:101F660087010130810741310318810A2530F100CC
:101F76000030F20042012E084101E2006208F3003F
:101F86009C31CF248C3101304001EE000030EF004F
:101F9600FF2F40016E08860087010130810741311D
:101FA6000318810AEE01EF01FF2F40016E0886003B
:101FB6008701403F4101E200413FE300620884009F
:101FC600630885000008E400E5016408F10065087F
:101FD600F20042012E084101E6006608F3009C313A
:101FE600CF248C3140016E088600870101308107BD
:101FF60041310318810AC62F0800430147084001F2
:10200600A500430146084001A400430145084001DC
:10201600A300430144084001A2007408A500730808
:10202600A4007208A3007108A2002208F500230884
:10203600F6002408F7002508F8001730F836F70CE4
:10204600F60CF50C890B2128FF307505A000003031
:102056007605A10020082104031D322833285428C0
:102066002208F5002308F6002408F7002508F800E2
:102076000130F535F60DF70DF80D890B3C2878087B
:10208600770476047504031D49284A284F28023030
:10209600F1000030F2007E280330F1000030F2003B
:1020A6007E28200A2104031D59285A287A28220846
:1020B600F5002308F6002408F7002508F800093083
:1020C600F535F60DF70DF80D890B632878087704BA
:1020D60076047504031970287228013073280030BD
:1020E600F900FA017908F1007A08F2007E28043036
:1020F600F1000030F20008004001AB01AC01A40180
:10210600A50189280130F7070030F83DAA01AA0A7F
:1021160077088400780885001200203A031994286D
:102126009528AA2877088400780885000008F73ED5
:10213600A000FF3003180030A10000302102053056
:1021460003192002031CA828A928AA28AA012A08DC
:10215600A000A1012008A6002108A7002608270440
:10216600031DB628B7288528C1280130A4000030F1
:10217600A5000130F7070030F83DF5287708840000
:10218600780885000008A000A1012108003A03197B
:10219600CD28F52820082B3A0319BC28063A03193E
:1021A600B828F52877088400780885000008A0007C
:1021B6002C08F2002B08F1000A30F3000030F4007E
:1021C60098311C20903172084001A200200871024B
:1021D600A100031CA2032108303EAB000030223DC3
:1021E600AC00BC2877088400780885000008D03E3B
:1021F600A000FF3003180030A100003021020A3091
:1022060003192002031C08290A2901300B29003072
:10221600A200A3012208A8002308A900280829046F
:10222600031D16291729D52824082504031D1C2952
:102236001D2929292B09A0002C09A100A00A031990
:10224600A10A2008F7002108F8002D292C08F8001B
:102256002B08F7000800430143084001ED00430145
:1022660042084001EC00430141084001EB004301F4
:1022760040084001EA005D08ED005C08EC005B08E0
:10228600EB005A08EA006A08DE006B08DF006C08FB
:10229600E0006D08E1001730E136E00CDF0CDE0CE3
:1022A600890B4F29FF305E05E20000305F05E30031
:1022B6006208813EE800FF30633DE9006908803A24
:1022C600DE0080305E02031D6A2917306802031C97
:1022D6006D296E296F29182A4001E91B7329742973
:1022E600D129FF30DE00FF30DF007F30E000003014
:1022F600E100680A8229E137E00CDF0CDE0C890B6D
:102306007E296108E7006008E6005F08E5005E08D0
:10231600E4006A086405DE006B086505DF006C08EA
:102326006605E0006D086705E100610860045F046A
:102336005E04031D9F29A029A1296E296A08DE00D3
:102346006B08DF006C08E0006D08E1001F30E13625
:10235600E00CDF0CDE0C890BAA29610860045F041F
:102366005E040319B729B829C0296408EA07650875
:10237600EB3D6608EC3D6708ED3D6409DE00650946
:10238600DF006609E0006709E1005E08EA055F080C
:10239600EB056008EC056108ED05102A6A08DE0009
:1023A6006B08DF006C08E0006D08E1001F30E136C5
:1023B600E00CDF0CDE0C890BDA29610860045F048F
:1023C6005E04031DE729E829F1290030ED000030FD
:1023D600EC000030EB000030EA00102A6A08DE004C
:1023E6006B08DF006C08E0006D08E1000130DE35A7
:1023F600DF0DE00DE10D890BFA29610860045F0429
:102406005E040319072A082A102ABF30ED0080301F
:10241600EC000030EB000030EA006D08DD006C08CF
:10242600DC006B08DB006A08DA0008004001AB003C
:10243600A2112113213086000030870071308400FC
:1024460000308500403F803F413F813F423F823F11
:10245600433F833F443F843F453F853F9E3151265E
:1024660092319C30F900D730890B372AF90B372A7D
:1024760000001030A7315D27923172084001A80094
:102486007108A7002117A2112130860000308700AD
:102496007130840000308500403F803F413F813FDE
:1024A600423F823F433F833F443F843F453F853F12
:1024B6009E31512692319C30F900D730890B612A22
:1024C600F90B612A00001030A7315D27923172089E
:1024D6004001AA007108A90027082902F900280866
:1024E6002A3BFA002B08860087017908C03F7A0844
:1024F600C13F2B0886008701403FAE00413FAF0039
:10250600AF1F862A872A8C2AAE09AF09AE0A03199D
:10251600AF0AA21521308600003087007130840092
:1025260000308500403F803F413F813F423F823F30
:10253600433F833F443F843F453F853F9E3151267D
:1025460092319C30F900D730890BA72AF90BA72ABC
:1025560000001030A7315D27923172084001AA00B1
:102566007108A90027082902F90028082A3BFA0061
:102576002008860087017908C03F7A08C13F2008F5
:1025860086008701403FAC00413FAD00AD1FCC2A1D
:10259600CD2AD22AAC09AD09AC0A0319AD0A2F0817
:1025A600803AF9002D08803A7902031DDC2A2C08AE
:1025B6002E020318DF2AE02AE52A40012D08AF0083
:1025C6002C08AE0040012F08803AF90085307902C8
:1025D600031DEF2AC9302E02031CF22AF32AF52A1C
:1025E6000230062B40012F08803AF900813079022B
:1025F600031DFF2A58302E020318022B032B052B2E
:102606000130062B003008004001C301C401C5019A
:10261600C601C701C8010A30B0003008C000C101B8
:10262600F10143309B316E2393314001BA014008DA
:10263600B0003008F1004330993154219331400104
:102646004008B0003008F10043309A31312293310E
:102656004001BB013E30B0003008A0004330860088
:10266600003087002130840000308500403F803FE5
:10267600413F813F423F823F433F833F443F843F48
:10268600453F853F3C309231192293314001B100DC
:102696003108C2004203031D512B522B702B02300E
:1026A6003B06031D572B582B592B952B4208B00080
:1026B6003008BB00053041020318622B632B952BB3
:1026C6000130B0003008C1074108B0003008F10001
:1026D60043309B316E2393318F2B02304206031D0C
:1026E600752B762B8F2B3B03031D7A2B7B2B7C2B99
:1026F600952B4208B0003008BB0041080319842B13
:10270600852B952B0130C1024108B0003008F1003D
:1027160043309B316E23933140014208031D942BB5
:10272600952B2D2B4008B0000330B035FF3E031D1E
:10273600982B3035F039B1003108C2004108B0009D
:102746003008C2046630B0003008B3003C08B00060
:102756003008B4003D08B0003008B5003E08B000AF
:102766003008B6003F08B0003008B7004208B00095
:102776003008B8000630B0003008F1003330A73119
:10278600E62793314001B1003108B2003208B000AB
:102796003008B9003330F3000030F4000730B000E1
:1027A6003008F50098319D20933103304001B10087
:1027B6000830B0007730890BDE2BB00BDE2BB10B67
:1027C600DE2B01304001C0020130B0003008BA07EC
:1027D6000B303A02031CF02BF12B1A2B9B31AC2346
:1027E60093310800400147088039C8004808D100E5
:1027F6004735C8004808D800C61F022C032C042CF5
:10280600581458080319082C092C192C580A031DAA
:102816000D2C0E2C162C0030C7000030C6000030E0
:10282600C5000030C400C617C701212C0030C70000
:102836000030C6000030C5000030C40043088039AF
:10284600C8004808D1064335C8004808D900C21F49
:102856002D2C2E2C2F2C591459080319332C342CBB
:10286600442C590A031D382C392C412C0030C30046
:102876000030C2000030C1000030C000C217C301E2
:102886004C2C0030C3000030C2000030C1000030C4
:10289600C0004308420441044004031D532C542C39
:1028A6006D2C0030C7000030C6000030C500003077
:1028B600C4008030C6047F30C7045108C8004808E9
:1028C600C7044708C3004608C2004508C1004408BB
:1028D600C000A82D5808031D712C722C7B2C0030CB
:1028E600C3000030C2000030C1000030C000A82D77
:1028F6005808C800C9014908CB0059084802CA004F
:10290600031CCB034A087F3ED20000304B3DD30068
:102916004708D0004608CF004508CE004408CD0041
:102926000030C7000030C6000030C5000030C400CB
:102936000030D7000030D6000030D5000030D4007B
:10294600D901E32C59080319A92CAA2CC42C01304F
:10295600CD35CE0DCF0DD00D890BAB2C0130C43546
:10296600C50DC60DC70D890BB22CD71FBB2CBC2CB1
:10297600BD2C44140130D435D50DD60DD70D890B99
:10298600BE2C43085002031DD22C42084F02031DE1
:10299600D22C41084E02031DD22C40084D02031CC6
:1029A600D52CD62CDF2C57174008CD024108CE3B3C
:1029B6004208CF3B4308D03B0130C8004808D9073E
:1029C6001A305902031CE82CE92CA52C50084F0498
:1029D6004E044D040319F02CF12C0A2D54140A2D23
:1029E6000130C435C50DC60DC70D890BF42CD71F94
:1029F600FD2CFE2CFF2C44140130D435D50DD60DFC
:102A0600D70D890B002DFF30D207FF30D33DC61FEF
:102A16000D2D0E2DF32CD901D71F122D132D2F2D71
:102A2600FF305405C800FF305505C900FF30560574
:102A3600CA007F305705CB004B084A0449044804B6
:102A46000319262D272D2A2DD901D90A2F2D441CED
:102A56002D2D2E2D2F2D272D59080319332D342DCD
:102A66005C2D0130C4070030C53D0030C63D003046
:102A7600C73D471C3F2D402D5C2D4408C800450826
:102A8600C9004608CA004708CB000130CC00CB3746
:102A9600CA0CC90CC80CCC0B4A2D4B08C7004A08F7
:102AA600C6004908C5004808C4000130D2070030F6
:102AB600D33D5308803AC80080304802031D652D77
:102AC600FF305202031C682D692D762DFF30400120
:102AD600D2000030D3000030C7000030C6000030FE
:102AE600C5000030C40040015308803AC800803059
:102AF6004802031D802D013052020318832D842DB8
:102B0600902D4001D201D3010030C7000030C6002D
:102B16000030C5000030C400D10140015208C80091
:102B26004808D800581C982D992D9B2DC6179F2D07
:102B36007F30C8004808C6055836C8004808C70090
:102B46005108C8004808C704642C08004001290839
:102B56008039AE002E08B3002935AE002E08B90024
:102B6600A81FB62DB72DB82D391439080319BC2D59
:102B7600BD2DCC2D390A031DC12DC22DCA2D003005
:102B8600A9000030A8000030A7000030A600A81752
:102B9600D42D0030A9000030A8000030A700003076
:102BA600A6002D088039AE002E08B3062D35AE00DE
:102BB6002E08B800AC1FE02DE12DE22D38143808A0
:102BC6000319E62DE72DF62D380A031DEB2DEC2D06
:102BD600F42D0030AD000030AC000030AB0000300A
:102BE600AA00AC17FE2D0030AD000030AC0000305E
:102BF600AB000030AA0038080319022E032E082E57
:102C06003908031D072E082E112E0030A9000030AA
:102C1600A8000030A7000030A600FF2F2608AE004F
:102C26002E08F1002C089831E220953172084001F7
:102C3600BF007108BE003E08AE00AF01B001B10191
:102C46003108B7003008B6002F08B5002E08B400CA
:102C56003F08AE00AF01B001B1013108BD00300838
:102C6600BC002F08BB002E08BA002708AE002E08AD
:102C7600F1002B089831E220953172084001BF001F
:102C86007108BE003E08AE00AF01B001B1012E08CA
:102C9600B4072F08B53D3008B63D3108B73D3F08AB
:102CA600AE00AF01B001B1012E08BA072F08BB3D37
:102CB6003008BC3D3108BD3D2808AE002E08F100A5
:102CC6002A089831E220953172084001BF00710848
:102CD600BE003E08AE00AF01B001B1012E08B40738
:102CE6002F08B53D3008B63D3108B73D3F08AE0068
:102CF600AF01B001B1012E08BA072F08BB3D30085D
:102D0600BC3D3108BD3D0830B435B50DB60DB70D27
:102D1600890B872E2708AE002E08F1002A08983165
:102D2600E220953172084001BF007108BE003E08DE
:102D3600B4073F08B53D0030B63DB73D2608AE00A6
:102D46002E08F1002B089831E220953172084001D7
:102D5600BF007108BE003E08B4073F08B53D00300D
:102D6600B63DB73D0830B435B50DB60DB70D890B78
:102D7600B62E2608AE002E08F1002A089831E22069
:102D8600953172084001BF007108BE003E08B407C5
:102D96003F08B53D0030B63DB73D2708AE002E08CA
:102DA600F1002C089831E220953172084001BF00ED
:102DB6007108BE003E08BA073F08BB3D0030BC3D67
:102DC600BD3D2808AE002E08F1002B089831E22000
:102DD600953172084001BF007108BE003E08BA076F
:102DE6003F08BB3D0030BC3DBD3D2808AE002E0867
:102DF600F1002C089831E220953172084001BF009D
:102E06007108BE003E08AE003F08AF00B001B10138
:102E16000830AE35AF0DB00DB10D890B0C2F2E0855
:102E2600BA072F08BB3D3008BC3D3108BD3D34080C
:102E3600AE003508AF003608B0003708B1001830CC
:102E4600B136B00CAF0CAE0C890B232F2E08BA0787
:102E56002F08BB3D3008BC3D3108BD3D0830B435B8
:102E6600B50DB60DB70D890B322F39083807AE00F0
:102E7600AF01AF0D2E08823EBE00FF302F3DBF00D2
:102E86005B2F0130BA35BB0DBC0DBD0D890B452F2F
:102E9600B71F4E2F4F2F502F3A140130B435B50DB2
:102EA600B60DB70D890B512FFF30BE07FF30BF3D62
:102EB600BC1F5E2F5F2F442FB801B71F632F642FEF
:102EC600802FFF303405AE00FF303505AF00FF30F0
:102ED6003605B0007F303705B100310830042F04C5
:102EE6002E040319772F782F7B2FB801B80A802F6D
:102EF6003A1C7E2F7F2F802F782F38080319842FB6
:102F0600852FAD2F0130BA070030BB3D0030BC3DE8
:102F16000030BD3D3D1C902F912FAD2F3A08AE00DD
:102F26003B08AF003C08B0003D08B1000130B200DC
:102F3600B137B00CAF0CAE0CB20B9B2F3108BD00F5
:102F46003008BC002F08BB002E08BA000130BE07AF
:102F56000030BF3D3F08803AAE0080302E02031D90
:102F6600B62FFF303E02031CB92FBA2FC42F7F3075
:102F76004001BD008030BC000030BB000030BA000C
:102F8600F32F40013F08803AAE0080302E02031D29
:102F9600CE2F01303E020318D12FD22FDD2F003065
:102FA6004001BD000030BC000030BB000030BA005C
:102FB600B301F32F40013E08AE002E08B900FF30E2
:102FC600BA05FF30BB057F30BC050030BD05391C96
:102FD600ED2FEE2FEF2FBC173936AE002E08BD00B1
:102FE6003308AE002E08BD043D08A9003C08A80021
:0A2FF6003B08A7003A08A6000800F7
:1030020041018C018D018E018F0192019301980182
:103012009A019F01053042018C008D018E018F01C2
:1030220090019201930194019501960197019801F3
:10303200943091000800F501F601711C2128222824
:1030420026287308F5077408F63D0130F335F40DB0
:10305200890B27280130F236F10C890B2C287108D4
:103062007204031D352836281E287608F2007508DA
:10307200F100080080304001C3064708F40046080A
:10308200F3004508F2004408F1004308F800420842
:10309200F7004108F6004008F50088310420983115
:1030A20074084001C3007308C2007208C1007108AD
:1030B200C0000800F501F50A2030710672040319F8
:1030C2006328642874287108F73EF300FF30723DCC
:1030D200F40000307402053003197302031C7228D5
:1030E20073287428F5017508F300F4017308F100E0
:1030F2007408F2000800F8007208F6007108F50082
:103102007808F3007308F70077088600023087001A
:10311200F70A7608F4007508F300F50A0319F60AAF
:1031220073088400740885000008C03F8908031DE5
:103132009B289C2885280800F801B828A731352744
:103142009831003A0319A628A7289F287808F60084
:10315200F7017608730786007708743D8700010837
:1031620099317D2198310130F6007608F80775080B
:103172007802031CBD28BE289F2808004030430166
:103182005B020318C528C628DF2842016D08A03E4D
:1031920086000230870001089A000130F0007008B2
:1031A200ED0740306D02031CD728D828D928ED013D
:1031B2000130F00070084301DB07E1284E011912CB
:1031C2000800F900F501F6017108F300F401730833
:1031D200F7007408F800791CEF28F028F428770823
:1031E200F5077808F63D0130F735F80D890BF5281B
:1031F2000310F90C7908031DFF280029EC28760832
:10320200F2007508F10008007708BF3E4001A000F7
:10321200FF30783DA100003021021A30031920024C
:10322200031C14291629013017290030A200A3011A
:103232002208F9002308FA0079087A0403192229DE
:1032420023292A2920307704F70000307804F80077
:103252002A2908004001A600A401A5014329230848
:10326200A000A1012008F1002108F2007908A200C3
:103272002208F3009C31CF24993101304001A40788
:103282000030A53D24082607A00020088600023051
:1032920087000108A1002108A3002308031D522969
:1032A200532930290800F4007108003E8400A83038
:1032B2000318013E85000008F2007208F300740A48
:1032C200860087010112731C67290116740A8600A1
:1032D20087018112F31C6E298116740A8600870108
:1032E2000113731D75290117740A86008701811362
:1032F200F31D7C2981170800F20043015B080319C2
:10330200832984297E294E01191A882989298D2920
:10331200720842019A00A62919127208F1004201AC
:103322006E08A03E860002308700710881000130DD
:10333200F1007108EE0740306E02031CA129A22998
:10334200A329EE0101304301DB024E0119160800E8
:103352009A31032299314201E6006608E800C12948
:103362002630F300A830F4009931D5219931D429BF
:10337200933107239931D4298A313C229931D429B6
:103382006808E600E7016708003A0319C929D42949
:103392006608613A0319BD29073A0319B929123A95
:1033A2000319B129D4290800F801F229A7313527D8
:1033B2009931003A0319DE29DF29D7297408F6006A
:1033C2007308F50078087507840076080318760AF2
:1033D2008500000899317D2199310130F500750889
:1033E200F8077408F6007308F5007808750784007A
:1033F20076080318760A85001200031D012A022AA4
:10340200D729080042016B080319082A092A032A4E
:103412006C08A03E8600013087000108F1007108A7
:103422004301D00042016C08B03E860001308700A3
:103432000108F1007108F2000130F1007108EC0797
:1034420010306C02031C262A272A282AEC014E017E
:10345200991201304201EB024E01991672080800DE
:10346200F8007108F200F301F235F30DF235F30DB5
:10347200003072078400A030733D8500003FF400E5
:10348200013FF500023FF600033FF7007408F20027
:103492007808023E86008701720881007508F200F2
:1034A2007808033E86008701720881007608F200E0
:1034B2007808043E860087017208810008004001F6
:1034C2009C01980199019A0108309600FE30920001
:1034D200FF309300913094007F307E01CE00FF30A8
:1034E200C300FF30B800E501C401B901CF01E60114
:1034F200BA01C501D001FF30BB00FF30C600FF306A
:10350200D1003F30BC003F30C7003F30D2001930FD
:10351200A5000F30A60017307D01CB000800420144
:10352200B8003130B5003508B9003808B5003508A3
:10353200BA00BB01BC01BD01BE0130084101E90076
:1035420042012F084101E80039304201B500350837
:103552004101EA003A309A31C4229A3141016908A4
:103562004201B700410168084201B6003B08380732
:10357200B500350886000130870081013708B000A8
:103582003608AF0008004101ED006908EF00680845
:10359200EE004301C801C901E62AEE30EB006B08D8
:1035A2004001EE0041016A08EC006C084001EF00A6
:1035B20041016D088C31FD249A3140016E084301AE
:1035C200C80740016F084301C93D41016E088400EC
:1035D2006F0885001200031DEF2AF02ACE2A43014C
:1035E20049084101E900430148084101E800080097
:1035F200A7316F279A318B170B1740019A110730A9
:103602004201EA001730E9006A30890B062BE90B08
:10361200062BEA0B062B000040019A1518140930FC
:103622004201EA001E30E900E430890B162BE90B57
:10363200162BEA0B162B0000400118109B31AC230D
:103642009A316400A7312C279A31003A03192A2BA8
:103652002B2B222B9931A9219A31222B80312B2815
:103662007C08A03E860001308700810142011D1DB9
:103672003B2B3C2B482B7C08A03E86000130870068
:103682008114430156088A0055080A009B31420101
:103692009D1C4C2B4D2B592B7C08A03E86000130E3
:1036A20087000115430154088A0053080A009B3120
:1036B2007C08A03E86000130870001080319622BB6
:1036C200632B6A2B430152088A0051080A009B317E
:1036D2006D2BA731B2279B310800F40071080B3E15
:1036E2008400A8300318013E85000008F200720829
:1036F200F3007408860087010111731C812B0115E8
:103702007408860087018111F31C882B81157408C7
:10371200860087010112731D8F2B01167408860023
:1037220087018113F31D962B8117740A8600870186
:103732000110731E9D2B0114740A860087018110EB
:10374200F31EA42B8114740A860087010111731FD2
:10375200AB2B011508004001A201A301A401A501A0
:10376200A601A701F10122309B316E239B310A3061
:10377200F9007908F1002230993154219B310A3045
:10378200F9007908F10022309A3131229B3140014F
:10379200A31122132230860000308700713084008A
:1037A20000308500403F803F413F813F423F823FA2
:1037B200433F833F443F843F453F853F9E315126EF
:1037C2009B319C30F900D730890BE52BF90BE52BA7
:1037D200000008004E0199123130F1001B30F20056
:1037E200A7311A279B314E011912BF30F100183050
:1037F200F200A73120279B31083042019F00903010
:103802009D0024309E0044309B009C010330F10057
:103812000030F200A7310E279B310030F100083052
:10382200F200A73114279B31FE30F1002630F2005E
:10383200A73108279B314301D0014201EE01ED017E
:103842004030F30073084301DB00FC014201EC014C
:10385200EB014E0199160800003071054001A000ED
:1038620000307205A10080307305A2007F3074051C
:10387200A3002308220421042004031D412C422C0E
:103882004A2C0030F4000030F3000030F200003027
:10389200F10000307505A00000307605A1008030EF
:1038A2007705A2007F307805A300230822042104B3
:1038B2002004031D5D2C5E2C662C0030F8000030C5
:1038C200F7000030F6000030F50078087406031D9A
:1038D200742C77087306031D742C76087206031D78
:1038E200742C750871060319772C782C7A2C031026
:1038F2007B2C03140800F701F41F802C812C882CE8
:10390200F309F409F30A0319F40AF701F70AF21F9B
:103912008B2C8C2C912CF109F209F10A0319F20A71
:10392200710872040319962C972CC02CF601F60A22
:10393200A32C0130F135F20D890B9B2C0130F500DF
:103942007508F607F21FA62CA72C9A2C720874028F
:10395200031DAD2C71087302031CB02CB12CB52CC5
:103962007108F3027208F43B0130F236F10C890B54
:10397200B62C0130F602031DBF2CC02CA72C7708F1
:103982000319C42CC52CCA2CF309F409F30A031930
:10399200F40A7408F2007308F100080073080319AE
:1039A200D32CD42CD92C7308031DD82CD92CDE2C63
:1039B20071088731FF279C31242D7308033E86004E
:1039C20001308700160001040319E82CE92C082DA8
:1039D2007308033E860001308700403FF400413FF8
:1039E200F500730A860001308700403FF600413F30
:1039F200F7007708803AF8007508803A7802031DCC
:103A0200042D740876020318072D082D242D710841
:103A1200F4007308860001308700730A84000130C5
:103A2200850000080107F50075088600013087004F
:103A320074088100730A8600013087000130810713
:103A420041310318810A08004001AE0043014E1CB7
:103A52002B2D2C2D352D40012E08FA007A08F90065
:103A6200270899312B219D314001A91B392D3A2D6F
:103A72003F2D2908AD002808AC00412DAC01AD0155
:103A8200AA01AB01552D2030F1000030F2004001B7
:103A92002E08FA007A08F3009C31CF249D310130C0
:103AA2004001AA070030AB3D2B08803AFA002D08EE
:103AB200803A7A02031D5F2D2C082A02031C622D14
:103AC200632D442D43014E18672D682D712D400141
:103AD2002E08FA007A08F900270899312B219D3126
:103AE20040012708A731CC279D3140012C087107DE
:103AF200A7002D08723DA8000800F701F21F822DD1
:103B0200832D8A2DF109F209F10A0319F20AF7014C
:103B1200F70AF41F8D2D8E2D972DF309F409F30A60
:103B22000319F40A0130F5007508F706F801F901E6
:103B32007108720403199E2D9F2DCE2DF601F60AEF
:103B4200AB2D0130F135F20D890BA32D0130F500BB
:103B52007508F607F21FAE2DAF2DA22D0130F835F4
:103B6200F90D890BB02D72087402031DBA2D71086C
:103B72007302031CBD2DBE2DC32D7108F302720802
:103B8200F43B78140130F236F10C890BC42D01306C
:103B9200F602031DCD2DCE2DAF2D77080319D22DA0
:103BA200D32DD82DF809F909F80A0319F90A790869
:103BB200F2007808F10008000310730D740DF5008F
:103BC2007508FB007B08031DE72DE82DF12D003061
:103BD200F4000030F3000030F2000030F100502E0B
:103BE2007108F5007208F6007308F7007408F8000F
:103BF2001F30F836F70CF60CF50C890BFA2D750808
:103C0200F9007908FA00F317FF30F105FF30F205E9
:103C1200FF30F3050030F4059630FB02FB1F122E35
:103C2200132E2B2E7B08803A973E0318192E1A2E3C
:103C32001B2EE82D0130F436F30CF20CF10C890B3B
:103C42001C2E0130F5007508FB07031D292E2A2EB4
:103C52001B2E402E20307B02031C302E312E3B2E99
:103C6200E82D0130F135F20DF30DF40D890B332EF1
:103C72000130FB027B08031D3F2E402E322E7A08B4
:103C82000319442E452E502EF109F209F309F409C5
:103C9200F10A0319F20A0319F30A0319F40A0800D4
:103CA20040019A108530890B542E000040019A1170
:103CB2008530890B5A2E000040019A15F801711CBB
:103CC200632E642E662E1A15672E1A110130F236F3
:103CD200F10C890B682E8530890B6D2E0000400196
:103CE2009A148530890B732E000040019A1001301E
:103CF200F7007708F80710307802031C812E822E15
:103D0200602EF801731C862E872E892E1A158A2E94
:103D12001A110130F436F30C890B8B2E8530890B86
:103D2200902E000040019A148530890B962E0000D7
:103D320040019A100130F7007708F8071030780236
:103D4200031CA42EA52E832EF801751CA92EAA2EC3
:103D5200AC2E1A15AD2E1A110130F636F50C890B60
:103D6200AE2E8530890BB32E000040019A148530A7
:103D7200890BB92E000040019A100130F700770834
:103D8200F80778080319C62EC72EA62E08000030A1
:103D920040014005C80000304105C900803042059D
:103DA200CA007F304305CB004B084A04490448044B
:103DB200031DDC2EDD2EE52E0030C3000030C200D4
:103DC2000030C1000030C00000304405C80000309F
:103DD2004505C90080304605CA007F304705CB0043
:103DE2004B084A0449044804031DF82EF92E012FFA
:103DF2000030C7000030C6000030C5000030C400EB
:103E0200C31F042F052F1D2F0030C8000030C9002A
:103E12000030CA008030CB004008C8024108C93BCC
:103E22004208CA3B4308CB3B4B08C3004A08C200C6
:103E32004908C1004808C000C71F202F212F392F71
:103E42000030C8000030C9000030CA008030CB000A
:103E52004408C8024508C93B4608CA3B4708CB3B51
:103E62004B08C7004A08C6004908C5004808C400F4
:103E72008030C3068030C70647084302031D4B2F1C
:103E820046084202031D4B2F45084102031D4B2FDA
:103E92004408400203184E2F4F2F512F0310522F68
:103EA200031408004001A00020080319592F5A2FBB
:103EB2006E2FF41F5D2F5E2F6E2F7109A200720903
:103EC200A3007309A4007409A500A20A0319A30A96
:103ED2000319A40A0319A50A762F7408A50073080A
:103EE200A4007208A3007108A2007408730472048B
:103EF2007104031D7D2F7E2F872F0030F4000030C8
:103F0200F3000030F2000030F100FF2F9630F50090
:103F12007508A100972F0130F5007508A10701303F
:103F2200A536A40CA30CA20C890B912FFE302505FB
:103F3200031D9C2F9D2F8C2FB12F0130F50075088A
:103F4200A1070130A2070030A33D0030A43D00309C
:103F5200A53D0130A536A40CA30CA20C890BAB2FF6
:103F6200FF302505031DB62FB72F9E2FC12F01301D
:103F7200A1020130A235A30DA40DA50D890BBB2F03
:103F8200A41BC42FC52FCB2F023021020318CA2F26
:103F9200CB2FB82F2118CE2FCF2FD72FFF30A2052E
:103FA200FF30A3057F30A405FF30A5050310A10C47
:103FB2002108F500F601F701F8011830F535F60D84
:103FC200F70DF80D890BDF2F7508A2047608A304FC
:103FD2007708A4047808A50420080319F12FF22F0A
:103FE200F72FF41FF52FF62FF72FA5172508F4004A
:103FF2002408F3002308F2002208F1000800C73465
:10400200403400340034CF344034003400346F3450
:104012004034003400343F344034003400340F3430
:104022008934003400340F348834003400340F34BF
:10403200A434003400340F340934013400340F3412
:104042000834013400340F342434013400340F3482
:10405200323401340034503449344E3420343D3447
:1040620020346D346534613473347534723465349C
:104072006D3465346E3474342034283473346934C6
:104082006D3475346C346134743469346F346E3425
:1040920029340A3400342A342A342A342A342A3479
:1040A2002A342A342A342A342A342A342A342A341E
:1040B2002A342A342A342A342A342A342A342A340E
:1040C2002A342A342A342A342A342A342A340A341E
:1040D200003456344F34553454345F3453344534F9
:1040E20020343D342034253433342E343334663492
:1040F200203456342034283430342E343934303499
:1041020030342034563429340A34003456344F348F
:1041120055345434503420343D342034253433342F
:104122002E34333466342034563420342834313437
:104132002E343134363438342034563429340A3467
:104142002034003449344F34553454344E342034FE
:104152003D342034253433342E3433346634203421
:1041620056342034283431342E343034303432341E
:104172002034563429340A34003449344F34553407
:104182005434503420343D342034253433342E34E6
:1041920033346634203456342034283431342E34C7
:1041A2003034303432342034563429340A34003432
:1041B20056344F34553454344E3420343D34203444
:1041C200253433342E343334663420345634203498
:1041D200283431342E3431343634383420345634A1
:1041E20029340A3400345334633469346234613418
:1041F20073346534203441345334493443342034E5
:10420200543465347334743465347234203456341F
:1042120030342E3431340A340034443443342034BC
:104222006F347034653472346134743469346E348A
:104232006734203470346F3469346E34743420340B
:0E424200743465347334743473340A340034C5
:104DFC00A731B227A631080003305101960090303C
:104E0C009500080072084301D2007108D100080017
:104E1C0072084301D6007108D500080072084301DE
:104E2C00D4007108D300080072084301D80071083F
:104E3C00D700080072084301DA007108D900080095
:104E4C00640080010131890B272F003442016B086B
:104E5C00031D312F332F0130342F00300800430154
:104E6C005B08031D3A2F3C2F01303D2F003008000A
:104E7C00603051018D008F0191010630930090013B
:104E8C00920108004F0196019701980199019A012E
:104E9C009B019C019D010800740873047204710449
:104EAC000319592F5A2F5C2F8030F4060800F40098
:104EBC00740841019F00420191171113111411182C
:104ECC00682F692F652F41011E08F2001D08F100A3
:104EDC000800A7314827A7319A316022A731A731A2
:104EEC003E27A73198310120A7319B31EB23A73105
:104EFC00A7310227A73108007108D03EF300FF301C
:104F0C00723DF400003074020A3003197302031C62
:104F1C00902F922F0130932F0030F500F601750879
:104F2C00F1007608F20008007108BF3EF300FF3074
:104F3C00723DF400003074021A3003197302031C22
:104F4C00A82FAA2F0130AB2F0030F500F601750801
:104F5C00F1007608F200080042011908F0007C0804
:104F6C00B03E860001308700700881000130F000EF
:104F7C007008FC0710307C02031CC52FC62FC72FEE
:104F8C00FC010130F0007008EB070800F500750813
:104F9C00F3007308F400D62F0130F3007308F50703
:104FAC0075088600023087000108031DDE2FDF2FF5
:104FBC00D22F74087502F100F201F11BF203080004
:104FCC00F400F501F601F82F76087407F200720868
:104FDC00860087010108F3007308F5060130F20022
:104FEC007208F60771087602031CFD2FFE2FEA2FBC
:104FFC0075080800003401340234033404340534D9
:10500C0006340734083409340A3404342434643440
:10501C006C347C347D347F347B3449344E344634A8
:10502C0000344E3441344E34003469346E346634BA
:10503C0000346E3461346E3400346C3466340034B5
:06504C004F346B34003408
:020000040001F9
:0A000E00EC3F3F3F9F3FFF1FFF3F05
:00000001FF
