:02000000552881
:100008007E14803120007F08F9000B198B1E1528FB
:100018000B11700895000130F8007808BE006A24BA
:100028005028911E34286A2423009D1C1E281D1266
:100038001D1650280F30200040020318C00123006D
:100048001908F80020004008203E8600870178083B
:1000580081000130F8007808C00762302624502853
:10006800111E50282100111E502873082F3E8600AB
:100078008701010823009A000130F8007808F30787
:1000880074087302031C502821001112F201533026
:10009800890B4C280000152479082000FF007E10E9
:1000A80009005628F001F101F201F301F4012030B2
:1000B8008400003085002C304C247E102000862AD5
:1000C8007A302000D5005508D6004308D5005508D9
:1000D800E7004408D5005508E8004508D50055084C
:1000E800E9004608D5005508EA004708D500550834
:1000F800EB00671367308600003087004C308400BF
:1001080000308500403F803F413F813F423F823F72
:10011800433F833F443F843F453F853FB421FA3006
:100128000032890B9428C82320004D08E4004C08AD
:10013800E300A52320004D08E6004C08E50063080D
:10014800D5005508D7006408D5005508D8006508BB
:10015800D5005508D9006608D5005508DA00671794
:10016800E81167308600003087004C30840000308A
:100178008500403F803F413F813F423F823F433FB0
:10018800833F443F843F453F853FB421FA300032E6
:10019800890BCB28C82320004D08E4004C08E30055
:1001A800A52320004D08E6004C08E5006308D500AB
:1001B8005508DB006408D5005508DC006508D50043
:1001C8005508DD006608D5005508DE00E8156730DB
:1001D8008600003087004C30840000308500403FA6
:1001E800803F413F813F423F823F433F833F443FFF
:1001F800843F453F853FB421FA300032890B0129FD
:10020800C82320004D08E4004C08E300A523200083
:100218004D08E6004C08E5006308D5005508DF00E6
:100228006408D5005508E0006508D5005508E100C8
:100238006608D5005508E2000D30D5005508CC00F9
:1002480056302E23080079302000D5005508D600F6
:100258004308D5005508E7004408D5005508E800CC
:100268004508D5005508E9004608D5005508EA00B4
:100278004708D5005508EB006717E8116730860076
:10028800003087004C30840000308500403F803FBC
:10029800413F813F423F823F433F833F443F843F4A
:1002A800453F853FB421FA300032890B5829C823CD
:1002B80020004D08E4004C08E300A52320004D0869
:1002C800E6004C08E5006308D5005508D700640827
:1002D800D5005508D8006508D5005508D900660826
:1002E800D5005508DA00E815673086000030870029
:1002F8004C30840000308500403F803F413F813FC3
:10030800423F823F433F833F443F843F453F853FD1
:10031800B421FA300032890B8E29C82320004D08F9
:10032800E4004C08E300A52320004D08E6004C0833
:10033800E5006308D5005508DB006408D5005508BA
:10034800DC006508D5005508DD006608D5005508AD
:10035800DE000930D5005508CC0056302E230800A1
:10036800F7302000D2005208D40554088E0020002F
:100378008C1220008C16D301103053020318E62982
:100388004C1CC8295415CC29FB30D2005208D4057E
:1003980054088E000130CD36CC0C890BCF292000B3
:1003A800D41554088E00F7302000D2005208D40526
:1003B80054088E000130D2005208D307103053027F
:1003C800031CC429D3011030530203180D2A4E1CF4
:1003D800EF295415F329FB30D2005208D4055408EC
:1003E8008E000130CF36CE0C890BF6292000D415AB
:1003F80054088E00F7302000D2005208D405540863
:100408008E000130D2005208D30710305302031C6B
:10041800EB29D3015308031D0800501C152A541555
:10042800192AFB30D2005208D40554088E00013036
:10043800D136D00C890B1C2A2000D41554088E0004
:10044800F7302000D2005208D40554088E0001303D
:10045800D2005208D3070E2A6F302000D500550865
:10046800D6004308D5005508DF004408D5005508D4
:10047800E0004508D5005508E1004608D5005508B4
:10048800E2004708D5005508E3005F135F30860097
:10049800003087004C30840000308500403F803FAA
:1004A800413F813F423F823F433F833F443F843F38
:1004B800453F853FB421FA300032890B602AC823B2
:1004C80020004D08DC004C08DB00A52320004D0867
:1004D800DE004C08DD005B08D5005508D7005C0835
:1004E800D5005508D8005D08D5005508D9005E0824
:1004F800D5005508DA000530D5005508CC0056302F
:100508002E23080067244524362404246324522417
:1005180020008C1219302000EE005830890B922AE6
:10052800EE0B922A000020008C16640020003E0882
:100538000319992ABE010B304002031CA52AC001E9
:10054800992A40080319992A4008EE006E08C1004C
:10055800EF0141086F020318C22A6F08203E860087
:1005680087010108EE006F08423E860087016E0889
:1005780081000130EE006E08EF07AD2A5923992A51
:10058800C82320004D08DB004C08DA00A523200012
:100598004D08DD004C08DC00822320004D08DF00F8
:1005A8004C08DE00243021009D006D302000D20070
:1005B8005208D3005A08D2005208D4005B08D2006F
:1005C8005208D5005C08D2005208D6005D08D20057
:1005D8005208D7005E08D2005208D8005F08D2003F
:1005E8005208D9000730D2005208CC0053302E23CD
:1005F800080020004308D5005508D6004408D50057
:100608005508D7004508D5005508D8004608D50034
:100618005508D9004708D5005508DA004108D50023
:100628005508CC0042302E23563086000030870013
:100638004C30840000308500403F803F413F813F7F
:10064800423F823F433F833F443F843F453F853F8E
:10065800B42108002000CF00720303190800D0015C
:100668004C08500203184B2B50084F07CD004D087B
:10067800860087010108CE0050082F3E86008701BA
:100688004E0881000130CD004D08D007342B5E2480
:10069800F30120004C08CD004D08F4000130CD00D6
:1006A8004D08F2002100111608006C2B20004108AB
:1006B800ED006D08CC0042302E230800FD22080012
:1006C800C4220800642008002721080030220800FE
:1006D80020004208633A0319622B0E3A0319642B6F
:1006E800023A03196A2B1B3A03195A2B0D3A0319BC
:1006F800682B033A0319662B812B0800153021005B
:100708009D00000021009D149D18882B1C082000C6
:10071800CE00CF014E08D0004F08D1000830D035A8
:10072800D10D890B932B21001B082000CE00CF018F
:100738004E08D0044F08D1045108CD005008CC0011
:100748000800113021009D00000021009D149D1813
:10075800AB2B1C082000CE00CF014E08D0004F085C
:10076800D1000830D035D10D890BB62B21001B08DC
:100778002000CE00CF014E08D0044F08D104510804
:10078800CD005008CC000800093021009D00000071
:1007980021009D149D18CE2B1C082000CE00CF01EF
:1007A8004E08D0004F08D1000830D035D10D890B44
:1007B800D92B21001B082000CE00CF014E08D00401
:1007C8004F08D1045108CD005008CC000800220081
:1007D8008C018E01043023008C0003308E003B30E6
:1007E80024008C003C308E0022009D131D116330C4
:1007F80021008E005F308C00951322009D010800B7
:1008080023001E159F159C010C309B001E129D177E
:100818001D162000BF01C001210091160B178B1770
:10082800080023001E159F159C010C309B001E120A
:100838009D171D162000BF01C001210091160B173E
:100848008B170800F7007708F500F6017508F00027
:100858007608F1002000BE01700895000B118B1678
:100868008B17080023001E159F159C010C309B0058
:100878001E129D179E16F201F301F4010B178B1738
:1008880008002100151195141510951195120800EE
:10089800640080010131890B4D2C0034F0302100B7
:1008A8009E0024309D0008003A30210099009A01EA
:1008B800980108002100911223001D120800D03071
:1008C80027009A000800EB23582408008B120B110C
:0208D800080016
:020000040001F9
:04000E00FCD9FFDA40
:00000001FF
