:02000000532883
:100008007E14803120007F08F9000B198B1E1528FB
:100018000B11700895000130F8007808BE000D2318
:100028004E28911E2E280D230F3020004002031861
:10003800C00123001908F80020004008203E86006F
:100048008701780881000130F8007808C00762301D
:10005800CE224E28111E4E282100111E4E2873084C
:100068002F3E86008701010823009A000130F8001E
:100078007808F30774087302031C4E282100111234
:10008800F2010530F8000D30890B4828F80B482894
:100098000032BD2279082000FF007E100900542894
:1000A800F001F101F201F301F40120308400003085
:1000B80085002530F4227E10200003297A302000A4
:1000C800CB004B08CE00DF01E0014408CB00CC0197
:1000D8004B08CC00CB014B08DF044C08E004430874
:1000E800CB00CC014B08DF044C08E0045F13600828
:1000F800C6005F08C50049210A302000CB00BC308B
:10010800890B8428CB0B8428000030222000460865
:10011800DC004508DB000D2220004608DE0045080B
:10012800DD005B08CB004B08CF005C08CB004B0818
:10013800D0005D08CB004B08D1005E08CB004B080F
:10014800D2005F17E0116008C6005F08C5004921AA
:100158000A302000CB00BC30890BB028CB0BB0286C
:100168000000302220004608DC004508DB000D2294
:1001780020004608DE004508DD005B08CB004B0880
:10018800D3005C08CB004B08D4005D08CB004B08BB
:10019800D5005E08CB004B08D600E0156008C60005
:1001A8005F08C50049210A302000CB00BC30890B0C
:1001B800DB28CB0BDB280000302220004608DC00BF
:1001C8004508DB000D2220004608DE004508DD005A
:1001D8005B08CB004B08D7005C08CB004B08D80065
:1001E8005D08CB004B08D9005E08CB004B08DA004D
:1001F8000D30CB004B08C5004E30C12108000A2342
:10020800ED22DE22AC220623FA2220008C122930AD
:100218002000E2009430890B0F29E20B0F2900001F
:1002280020008C1629302000E2009430890B1A290E
:10023800E20B1A29000020003E0803191F29BE01FD
:1002480004304002031C2A29C0011F294008031951
:100258001F294008E2006208C100E3014108630267
:10026800031847296308203E860087010108E20039
:100278006308423E86008701620881000130E2007F
:100288006208E307322974221F29F7302000C700CB
:100298004708C90549088E002930890B51290032C1
:1002A80020008C122930890B5729003220008C1627
:1002B800C8011030480203180800451C6529491573
:1002C8006929FB30C7004708C90549088E00013075
:1002D800C636C50C890B6C292930890B7129003267
:1002E8002000C91549088E002930890B7929003268
:1002F800F7302000C7004708C90549088E000130BB
:10030800C7004708C8075D29302220004608D400E6
:100318004508D3000D2220004608D6004508D50020
:10032800EA2120004608D8004508D70024302100DB
:100338009D006D302000CB004B08CC005308CB004B
:100348004B08CD005408CB004B08CE005508CB0015
:100358004B08CF005608CB004B08D0005708CB00FD
:100368004B08D1005808CB004B08D2000730CB000F
:100378004B08C5004C30C12108002000C80072039A
:1003880003190800C901450849020318DE2949086C
:100398004807C6004608860087010108C7004908C3
:1003A8002F3E86008701470881000130C6004608B5
:1003B800C907C729F3014508C6004608F4000130FB
:1003C800C6004608F2002100111608001530210069
:1003D8009D00000021009D149D18F0291C08200094
:1003E800C700C8014708C9004808CA000830C9350D
:1003F800CA0D890BFB2921001B082000C700C80172
:100408004708C9044808CA044A08C6004908C5007C
:100418000800113021009D00000021009D149D1846
:10042800132A1C082000C700C8014708C90048084B
:10043800CA000830C935CA0D890B1E2A21001B08BD
:100448002000C700C8014708C9044808CA044A0868
:10045800C6004908C5000800093021009D000000B9
:1004680021009D149D18362A1C082000C700C801C9
:100478004708C9004808CA000830C935CA0D890BA1
:10048800412A21001B082000C700C8014708C904E9
:100498004808CA044A08C6004908C50008002000E0
:1004A800CD01CE014408CA00CB014A08CB00CA01DD
:1004B8004A08CD044B08CE044308CA00CB014A08B9
:1004C800CD044B08CE044108CA004A08C500423092
:1004D800C12120004E08C6004D08C500492108006A
:1004E800832A20004108E1006108C5004230C1218B
:1004F8000800532208008821080062200800200014
:100508004208633A03197D2A0E3A03197F2A193AD9
:100518000319752A0E3A0319812A922A0800220023
:100528008C018E01043023008C0003308E003B3098
:1005380024008C003C308E0022009D131D11633076
:1005480021008E005F308C00951322009D01080069
:1005580023001E159F159C010C309B001E129D1731
:100568001D162000BF01C001210091160B178B1723
:10057800080023001E159F159C010C309B001E12BD
:100588009D171D162000BF01C001210091160B17F1
:100598008B170800F7007708F500F6017508F000DA
:1005A8007608F1002000BE01700895000B118B162B
:1005B8008B17080023001E159F159C010C309B000B
:1005C8001E129D179E16F201F301F4010B178B17EB
:1005D80008002100151195141510951195120800A1
:1005E800640080010131890BF52A0034F0302100C4
:1005F8009E0024309D0008003A30210099009A019D
:1006080098010800D03027009A00080093220023A0
:0806180008008B120B11080011
:020000040001F9
:04000E00E4D9FFDA58
:00000001FF
