:040000000128FE2FA6
:100E980055274F2708003A30210099009A019801F8
:100EA800080022008C018E0123008C010F308E0077
:100EB8003F3024008C003F308E00713021008E00BE
:100EC8007F308C00951322009D0108004C272000DC
:100ED8008E102930F9009430F800F80B712FF90BB7
:100EE800712F000020008E142930F9009430F8008A
:100EF800F80B7C2FF90B7C2F00005530FA00F030EE
:100F0800FB007A08F0007B08F100F201F3011030D1
:100F1800F8007808F400B2272930F9009430F80076
:100F2800F80B942FF90B942F00000F30FA00AA3019
:100F3800FB007A08F0007B08F100F201F3011030A1
:100F4800F8007808F400B2272930F9009430F80046
:100F5800F80BAC2FF90BAC2F0000812FFB30F500FC
:100F68007508F705770820008E002930F500F50B85
:100F7800BB2F0000F730F5007508F705770820004B
:100F88008E002930F500F50BC72F0000F7157708FC
:100F980020008E00F6011030760203180800701C3D
:100FA800D72FF714DB2FFD30F5007508F705770804
:100FB8008E000130F336F20CF10CF00C890BDE2FA9
:100FC8002930F500F50BE62F00007715770820008B
:100FD8008E002930F500F50BEF2F0000FB30F500EF
:100FE8007508F705770820008E000130F5007508B0
:080FF800F607CF2F20006A2F3D
:020000040001F9
:04000E00E4D9FFDA58
:00000001FF
