:02000000552881
:100008007E14803120007F08F9000B198B1E1528FB
:100018000B11700895000130F8007808BE00A12384
:100028005028911E3428A12323009D1C1E281D1230
:100038001D1650280F30200040020318C00123006D
:100048001908F80020004008203E8600870178083B
:1000580081000130F8007808C00762305D2350281D
:10006800111E50282100111E502873082F3E8600AB
:100078008701010823009A000130F8007808F30787
:1000880074087302031C502821001112F201533026
:10009800890B4C2800004C2379082000FF007E10B3
:1000A80009005628F001F101F201F301F4012030B2
:1000B8008400003085002C3083237E102000C7295F
:1000C8007A302000D5005508D6004308D5005508D9
:1000D800E7004408D5005508E8004508D50055084C
:1000E800E9004608D5005508EA004708D500550834
:1000F800EB00671367308600003087004C308400BF
:1001080000308500403F803F413F813F423F823F72
:10011800433F833F443F843F453F853F332103307E
:100128002000D5006E30890B9728D50B9728E02240
:1001380020004D08E4004C08E300BD2220004D08D3
:10014800E6004C08E5006308D5005508D7006408A8
:10015800D5005508D8006508D5005508D9006608A7
:10016800D5005508DA006717E811673086000030B7
:1001780087004C30840000308500403F803F413F7D
:10018800813F423F823F433F833F443F843F453F57
:10019800853F332103302000D5006E30890BD228EB
:1001A800D50BD228E02220004D08E4004C08E300DB
:1001B800BD2220004D08E6004C08E5006308D50084
:1001C8005508DB006408D5005508DC006508D50033
:1001D8005508DD006608D5005508DE00E8156730CB
:1001E8008600003087004C30840000308500403F96
:1001F800803F413F813F423F823F433F833F443FEF
:10020800843F453F853F332103302000D5006E30C1
:10021800890B0C29D50B0C29E02220004D08E4009D
:100228004C08E300BD2220004D08E6004C08E5001C
:100238006308D5005508DF006408D5005508E000BC
:100248006508D5005508E1006608D5005508E200A4
:100258000D30D5005508CC0056306F220800F73015
:100268002000D2005208D40554088E000430890BAF
:100278003B2920008C120430890B402920008C1661
:10028800D30110305302031871294C1C4D29541501
:100298005129FB30D2005208D40554088E00013091
:1002A800CD36CC0C890B54290430890B59292000F0
:1002B800D41554088E000430890B6029F7302000CB
:1002C800D2005208D40554088E000130D2005208DA
:1002D800D30710305302031C4929D30110305302AD
:1002E80003189E294E1C7A2954157E29FB30D2000A
:1002F8005208D40554088E000130CF36CE0C890B35
:1003080081290430890B86292000D41554088E00D1
:100318000430890B8D29F7302000D2005208D4050B
:1003280054088E000130D2005208D307103053020F
:10033800031C7629D3015308031D0800501CA62965
:100348005415AA29FB30D2005208D40554088E004F
:100358000130D136D00C890BAD290430890BB22974
:100368002000D41554088E000430890BB929F730C1
:100378002000D2005208D40554088E000130D20063
:100388005208D3079F299E237C236D233B239A235E
:10039800892320008C1219302000EE005830890B78
:1003A800D329EE0BD329000020008C16640020000E
:1003B8003E080319DA29BE010B304002031CE62966
:1003C800C001DA2940080319DA294008EE006E084E
:1003D800C100EF0141086F020318032A6F08203E8D
:1003E800860087010108EE006F08423E86008701FB
:1003F8006E0881000130EE006E08EF07EE29032336
:10040800DA29E02220004D08DB004C08DA00BD2282
:1004180020004D08DD004C08DC009A2220004D0821
:10042800DF004C08DE00243021009D006D302000E4
:10043800D2005208D3005A08D2005208D4005B08F0
:10044800D2005208D5005C08D2005208D6005D08D8
:10045800D2005208D7005E08D2005208D8005F08C0
:10046800D2005208D9000730D2005208CC005330CD
:100478006F22080020004308D5005508D60044081C
:10048800D5005508D7004508D5005508D8004608B6
:10049800D5005508D9004708D5005508DA004108A5
:1004A800D5005508CC0042306F2256308600003007
:1004B80087004C30840000308500403F803F413F3A
:1004C800813F423F823F433F833F443F843F453F14
:1004D800853F332108002000CF007203031908006C
:1004E800D0014C08500203188C2A50084F07CD0041
:1004F8004D08860087010108CE0050082F3E86006F
:1005080087014E0881000130CD004D08D007752ABB
:100518009523F30120004C08CD004D08F40001306C
:10052800CD004D08F20021001116080015302100F9
:100538009D00000021009D149D18A02A1C08200081
:10054800CE00CF014E08D0004F08D1000830D0357A
:10055800D10D890BAB2A21001B082000CE00CF014A
:100568004E08D0044F08D1045108CD005008CC00E3
:100578000800113021009D00000021009D149D18E5
:10058800C32A1C082000CE00CF014E08D0004F0817
:10059800D1000830D035D10D890BCE2A21001B0897
:1005A8002000CE00CF014E08D0044F08D1045108D6
:1005B800CD005008CC000800093021009D00000043
:1005C80021009D149D18E62A1C082000CE00CF01AA
:1005D8004E08D0004F08D1000830D035D10D890B16
:1005E800F12A21001B082000CE00CF014E08D004BC
:1005F8004F08D1045108CD005008CC000800122B38
:1006080020004108ED006D08CC0042306F22080040
:100618003E22080005220800642008002000420845
:10062800633A03190C2B0E3A03190E2B193A0319C6
:10063800042B0E3A0319102B212B080022008C01E1
:100648008E01043023008C0003308E003B302400E0
:100658008C003C308E0022009D131D116330210058
:100668008E005F308C00951322009D010800230046
:100678001E159F159C010C309B001E129D171D1600
:100688002000BF01C001210091160B178B1708002D
:1006980023001E159F159C010C309B001E129D17F0
:1006A8001D162000BF01C001210091160B178B17E2
:1006B8000800F7007708F500F6017508F0007608DD
:1006C800F1002000BE01700895000B118B168B17E6
:1006D800080023001E159F159C010C309B001E125C
:1006E8009D179E16F201F301F4010B178B170800F2
:1006F8002100151195141510951195120800640024
:1007080080010131890B842B0034F03021009E00D8
:1007180024309D0008003A30210099009A01980180
:1007280008002100911223001D120800D030270074
:100738009A00080022238F2308008B120B1108004F
:020000040001F9
:04000E00FCD9FFDA40
:00000001FF
