:02000000552881
:100008007E14803120007F08F9000B198B1E1528FB
:100018000B11700895000130F8007808BE008224A2
:100028005028911E3428822423009D1C1E281D124E
:100038001D1650280F30200040020318C00123006D
:100048001908F80020004008203E8600870178083B
:1000580081000130F8007808C00762303E2450283B
:10006800111E50282100111E502873082F3E8600AB
:100078008701010823009A000130F8007808F30787
:1000880074087302031C502821001112F201533026
:10009800890B4C2800002D2479082000FF007E10D1
:1000A80009005628F001F101F201F301F4012030B2
:1000B8008400003085002C3064247E1020009E2AA5
:1000C8007A302000D5005508D6004308D5005508D9
:1000D800E7004408D5005508E8004508D50055084C
:1000E800E9004608D5005508EA004708D500550834
:1000F800EB00671367308600003087004C308400BF
:1001080000308500403F803F413F813F423F823F72
:10011800433F833F443F843F453F853F2721FA3093
:100128000032890B9428E02320004D08E4004C0895
:10013800E300BD2320004D08E6004C08E5006308F5
:10014800D5005508D7006408D5005508D8006508BB
:10015800D5005508D9006608D5005508DA00671794
:10016800E81167308600003087004C30840000308A
:100178008500403F803F413F813F423F823F433FB0
:10018800833F443F843F453F853F2721FA30003273
:10019800890BCB28E02320004D08E4004C08E3003D
:1001A800BD2320004D08E6004C08E5006308D50093
:1001B8005508DB006408D5005508DC006508D50043
:1001C8005508DD006608D5005508DE00E8156730DB
:1001D8008600003087004C30840000308500403FA6
:1001E800803F413F813F423F823F433F833F443FFF
:1001F800843F453F853F2721FA300032890B01298A
:10020800E02320004D08E4004C08E300BD23200053
:100218004D08E6004C08E5006308D5005508DF00E6
:100228006408D5005508E0006508D5005508E100C8
:100238006608D5005508E2000D30D5005508CC00F9
:10024800563046230800F7302000D2005208D40563
:1002580054088E000430890B2F2920008C1204309A
:10026800890B342920008C16D3011030530203184F
:1002780065294C1C412954154529FB30D2005208E8
:10028800D40554088E000130CD36CC0C890B482992
:100298000430890B4D292000D41554088E000430F1
:1002A800890B5429F7302000D2005208D40554088D
:1002B8008E000130D2005208D30710305302031CBD
:1002C8003D29D30110305302031892294E1C6E2980
:1002D80054157229FB30D2005208D40554088E00F8
:1002E8000130CF36CE0C890B75290430890B7A2959
:1002F8002000D41554088E000430890B8129F7306A
:100308002000D2005208D40554088E000130D200D3
:100318005208D30710305302031C6A29D30153082B
:10032800031D0800501C9A2954159E29FB30D20041
:100338005208D40554088E000130D136D00C890BF0
:10034800A1290430890BA6292000D41554088E0051
:100358000430890BAD29F7302000D2005208D405AB
:1003680054088E000130D2005208D30793297930FF
:100378002000D5005508D6004308D5005508E700E9
:100388004408D5005508E8004508D5005508E90097
:100398004608D5005508EA004708D5005508EB007F
:1003A8006717E81167308600003087004C308400FA
:1003B80000308500403F803F413F813F423F823FC0
:1003C800433F833F443F843F453F853F2721FA30E1
:1003D8000032890BEC29E02320004D08E4004C088A
:1003E800E300BD2320004D08E6004C08E500630843
:1003F800D5005508D7006408D5005508D800650809
:10040800D5005508D9006608D5005508DA00E81562
:1004180067308600003087004C308400003085004B
:10042800403F803F413F813F423F823F433F833FC0
:10043800443F843F453F853F2721FA300032890BEE
:10044800222AE02320004D08E4004C08E300BD23E5
:1004580020004D08E6004C08E5006308D500550863
:10046800DB006408D5005508DC006508D500550890
:10047800DD006608D5005508DE000930D5005508AE
:10048800CC005630462308006F302000D5005508B0
:10049800D6004308D5005508DF004408D5005508A4
:1004A800E0004508D5005508E1004608D500550884
:1004B800E2004708D5005508E3005F135F30860067
:1004C800003087004C30840000308500403F803F7A
:1004D800413F813F423F823F433F833F443F843F08
:1004E800453F853F2721FA300032890B782AE023DF
:1004F80020004D08DC004C08DB00BD2320004D081F
:10050800DE004C08DD005B08D5005508D7005C0804
:10051800D5005508D8005D08D5005508D9005E08F3
:10052800D5005508DA000530D5005508CC005630FE
:10053800462308007F245D244E241C247B246A243F
:1005480020008C1219302000EE005830890BAA2A9E
:10055800EE0BAA2A000020008C16640020003E083A
:100568000319B12ABE010B304002031CBD2AC00189
:10057800B12A40080319B12A4008EE006E08C100EC
:10058800EF0141086F020318DA2A6F08203E86003F
:1005980087010108EE006F08423E860087016E0859
:1005A80081000130EE006E08EF07C52A7123B12AD9
:1005B800E02320004D08DB004C08DA00BD232000B2
:1005C8004D08DD004C08DC009A2320004D08DF00B0
:1005D8004C08DE00243021009D006D302000D20040
:1005E8005208D3005A08D2005208D4005B08D2003F
:1005F8005208D5005C08D2005208D6005D08D20027
:100608005208D7005E08D2005208D8005F08D2000E
:100618005208D9000730D2005208CC005330462384
:10062800080020004308D5005508D6004408D50026
:100638005508D7004508D5005508D8004608D50004
:100648005508D9004708D5005508DA004108D500F3
:100658005508CC00423046235630860000308700CB
:100668004C30840000308500403F803F413F813F4F
:10067800423F823F433F833F443F843F453F853F5E
:10068800272108002000CF00720303190800D001B9
:100698004C0850020318632B50084F07CD004D0833
:1006A800860087010108CE0050082F3E860087018A
:1006B8004E0881000130CD004D08D0074C2B762420
:1006C800F30120004C08CD004D08F4000130CD00A6
:1006D8004D08F200210011160800842B2000410863
:1006E800ED006D08CC0042304623080015230800B1
:1006F800DC22080064200800BB210800482208000A
:1007080020004208633A03197A2B0E3A03197C2B0E
:10071800023A0319822B1B3A0319722B0D3A03195B
:10072800802B033A03197E2B992B080015302100E2
:100738009D00000021009D149D18A02B1C0820007E
:10074800CE00CF014E08D0004F08D1000830D03578
:10075800D10D890BAB2B21001B082000CE00CF0147
:100768004E08D0044F08D1045108CD005008CC00E1
:100778000800113021009D00000021009D149D18E3
:10078800C32B1C082000CE00CF014E08D0004F0814
:10079800D1000830D035D10D890BCE2B21001B0894
:1007A8002000CE00CF014E08D0044F08D1045108D4
:1007B800CD005008CC000800093021009D00000041
:1007C80021009D149D18E62B1C082000CE00CF01A7
:1007D8004E08D0004F08D1000830D035D10D890B14
:1007E800F12B21001B082000CE00CF014E08D004B9
:1007F8004F08D1045108CD005008CC000800220051
:100808008C018E01043023008C0003308E003B30B5
:1008180024008C003C308E0022009D131D11633093
:1008280021008E005F308C00951322009D01080086
:1008380023001E159F159C010C309B001E129D174E
:100848001D162000BF01C001210091160B178B1740
:10085800080023001E159F159C010C309B001E12DA
:100868009D171D162000BF01C001210091160B170E
:100878008B170800F7007708F500F6017508F000F7
:100888007608F1002000BE01700895000B118B1648
:100898008B17080023001E159F159C010C309B0028
:1008A8001E129D179E16F201F301F4010B178B1708
:1008B80008002100151195141510951195120800BE
:1008C800640080010131890B652C0034F03021006F
:1008D8009E0024309D0008003A30210099009A01BA
:1008E800980108002100911223001D120800D03041
:1008F80027009A0008000324702408008B120B11AB
:020908000800E5
:020000040001F9
:04000E00FCD9FFDA40
:00000001FF
