:02000000542882
:100008007E14803120007F08FB000B198B1E1528F9
:100018000B11700895000130F9007908BE00C02165
:100028004F28911E2E28C0210F3020003F020318B0
:10003800BF0123001908F90020003F08203E860070
:100048008701790881000130F9007908BF0762301B
:1000580087214F28111E4F282100111E4F28740890
:100068002F3E86008701010823009A000130F9001D
:100078007908F40775087402031C4F28210011122F
:10008800F3010530FA000D30F900F90B4928FA0B95
:100098004928000076217B082000FF007E10090017
:1000A8005528F001F101F201F301F401F5012030C6
:1000B8008400003085002430AD217E1020006428A3
:1000C800BD21A62197216521B92120008C12293054
:1000D800CF009430CE00CE0B6F28CF0B6F280000D6
:1000E80020008C162930CF009430CE00CE0B7A2811
:1000F800CF0B7A28000020003E0803197F28BE0194
:1001080004303F02031C8A28BF017F283F080319D7
:100118007F283F08CE004E08C000D001400850029A
:100128000318A7285008203E860087010108CE0042
:100138005008413E860087014E0881000130CE00FC
:100148004E08D0079228EC207F28F7302000C60000
:100158004608C80548088E002930C600C60BB228D4
:10016800000020008C122930C600C60BB9280000F8
:1001780020008C16C7011030470203180800441CE1
:10018800C7284815CB28FB30C6004608C8054808CC
:100198008E000130C536C40C890BCE282930C60024
:1001A800C60BD42800002000C81548088E00293046
:1001B800C600C60BDD280000F7302000C600460840
:1001C800C80548088E000130C6004608C707BF2882
:1001D800162920004008C9004908C40041302321DD
:1001E80008002000CC01CD014308C900CA01490814
:1001F800CA00C9014908CC044A08CD044208C9000C
:10020800CA014908CC044A08CD044008C900490875
:10021800C4004130232120004D08C5004C08C4000B
:10022800A920080020004108633A0319F5280E3A6E
:1002380003192229193A0319ED2822290800200058
:10024800C700730303190800C801440848020318CB
:10025800402948084707C500450886008701010866
:10026800C60048082F3E86008701460881000130F5
:10027800C5004508C8072929F4014408C5004508F0
:10028800F5000130C5004508F300210011160800EB
:1002980022008C018E01043023008C0003308E0074
:1002A8003B3024008C003C308E0022009D131D1131
:1002B800633021008E005F308C00951322009D0171
:1002C800080023001E159F159C010C309B001E1270
:1002D8009D171D16F2012000BF01210091160B1772
:1002E8008B17080023001E159F159C010C309B00DE
:1002F8001E129D171D16F2012000BF012100911644
:100308000B178B170800F8007808F600F701760835
:10031800F0007708F1002000BE01700895000B116D
:100328008B168B17080023001E159F159C010C3097
:100338009B001E129D179E16F301F401F5010B1781
:100348008B17080021001511951415109511951299
:100358000800640080010131890BAE2900343A306D
:10036800210099009A0198010800D03027009A00CE
:0E03780008004C21B32108008B120B11080065
:020000040001F9
:04000E00E4D9FFDA58
:00000001FF
