:0200000059287D
:100008007E14803120007F08F9000B198B1E1528FB
:100018000B11700895000130F8007808BE00A12384
:100028005428911E3428A12323009D1C1E281D122C
:100038001D1654280F30200040020318C001230069
:100048001908F80020004008203E8600870178083B
:1000580081000130F8007808C00762306223542814
:10006800111E54282100111E542873082F3E8600A3
:100078008701010823009A000130F8007808F30787
:1000880074087302031C542821001112F201053070
:10009800F8000D30890B4E28F80B4E2800325123FA
:1000A80079082000FF007E1009005A28F001F101AC
:1000B800F201F301F40120308400003085002C3077
:1000C80088237E102000CE297A302000D5005508DC
:1000D800D6004308D5005508E7004408D500550860
:1000E800E8004508D5005508E9004608D500550838
:1000F800EA004708D5005508EB006713673086000B
:10010800003087004C30840000308500403F803F3D
:10011800413F813F423F823F433F833F443F843FCB
:10012800453F853F3A210A302000D500BC30890B75
:100138009B28D50B9B280000E52220004D08E400F1
:100148004C08E300C22220004D08E6004C08E500F8
:100158006308D5005508D7006408D5005508D800AD
:100168006508D5005508D9006608D5005508DA0095
:100178006717E81167308600003087004C3084002C
:1001880000308500403F803F413F813F423F823FF2
:10019800433F833F443F843F453F853F3A210A30F0
:1001A8002000D500BC30890BD728D50BD7280000F4
:1001B800E52220004D08E4004C08E300C22220009C
:1001C8004D08E6004C08E5006308D5005508DB003B
:1001D8006408D5005508DC006508D5005508DD0021
:1001E8006608D5005508DE00E8156730860000303F
:1001F80087004C30840000308500403F803F413FFD
:10020800813F423F823F433F833F443F843F453FD6
:10021800853F3A210A302000D500BC30890B1229CD
:10022800D50B12290000E52220004D08E4004C08F7
:10023800E300C22220004D08E6004C08E5006308F0
:10024800D5005508DF006408D5005508E0006508AA
:10025800D5005508E1006608D5005508E2000D30C4
:10026800D5005508CC00563076220800F73020001B
:10027800D2005208D40554088E000430890B422954
:1002880020008C120430890B472920008C16D301DA
:1002980010305302031878294C1C54295415582936
:1002A800FB30D2005208D40554088E000130CD36F8
:1002B800CC0C890B5B290430890B60292000D415EC
:1002C80054088E000430890B6729F7302000D200CB
:1002D8005208D40554088E000130D2005208D307C2
:1002E80010305302031C5029D30110305302031855
:1002F800A5294E1C812954158529FB30D2005208A6
:10030800D40554088E000130CF36CE0C890B8829CD
:100318000430890B8D292000D41554088E00043030
:10032800890B9429F7302000D2005208D4055408CC
:100338008E000130D2005208D30710305302031C3C
:100348007D29D3015308031D0800501CAD295415FD
:10035800B129FB30D2005208D40554088E00013070
:10036800D136D00C890BB4290430890BB929200067
:10037800D41554088E000430890BC029F7302000AA
:10038800D2005208D40554088E000130D200520819
:10039800D307A6299E238123722340239A238E23E1
:1003A80020008C1219302000EE005830890BDA2911
:1003B800EE0BDA29000020008C16640020003E08AD
:1003C8000319E129BE010B304002031CED29C001CD
:1003D800E12940080319E1294008EE006E08C10030
:1003E800EF0141086F0203180A2A6F08203E8600B1
:1003F80087010108EE006F08423E860087016E08FB
:1004080081000130EE006E08EF07F5290823E12985
:10041800E52220004D08DB004C08DA00C22220004B
:100428004D08DD004C08DC009F2220004D08DF004D
:100438004C08DE00243021009D006D302000D200E1
:100448005208D3005A08D2005208D4005B08D200E0
:100458005208D5005C08D2005208D6005D08D200C8
:100468005208D7005E08D2005208D8005F08D200B0
:100478005208D9000730D2005208CC0053307622F7
:10048800080020004308D5005508D6004408D500C8
:100498005508D7004508D5005508D8004608D500A6
:1004A8005508D9004708D5005508DA004108D50095
:1004B8005508CC004230762256308600003087003E
:1004C8004C30840000308500403F803F413F813FF1
:1004D800423F823F433F833F443F843F453F853F00
:1004E8003A2108002000CF00720303190800D00148
:1004F8004C0850020318932A50084F07CD004D08A6
:10050800860087010108CE0050082F3E860087012B
:100518004E0881000130CD004D08D0077C2AF30138
:100528004C08CD004D08F4000130CD004D08F20014
:10053800210011160800153021009D00000021003F
:100548009D149D18A52A1C082000CE00CF014E0836
:10055800D0004F08D1000830D035D10D890BB02A12
:1005680021001B082000CE00CF014E08D0044F0800
:10057800D1045108CD005008CC00080011302100EA
:100588009D00000021009D149D18C82A1C08200009
:10059800CE00CF014E08D0004F08D1000830D0352A
:1005A800D10D890BD32A21001B082000CE00CF01D2
:1005B8004E08D0044F08D1045108CD005008CC0093
:1005C8000800093021009D00000021009D149D189D
:1005D800EB2A1C082000CE00CF014E08D0004F089F
:1005E800D1000830D035D10D890BF62A21001B081F
:1005F8002000CE00CF014E08D0044F08D104510886
:10060800CD005008CC000800172B20004108ED0051
:100618006D08CC00423076220800452208000C22E2
:1006280008006820080020004208633A0319112BCB
:100638000E3A0319132B193A0319092B0E3A031909
:10064800152B262B080022008C018E010430230074
:100658008C0003308E003B3024008C003C308E0030
:1006680022009D131D11633021008E005F308C0025
:10067800951322009D01080023001E159F159C015B
:100688000C309B001E129D171D162000BF01C001D3
:10069800210091160B178B17080023001E159F15B4
:1006A8009C010C309B001E129D171D162000BF01D7
:1006B800C001210091160B178B170800F700770867
:1006C800F500F6017508F0007608F1002000BE017B
:1006D800700895000B118B168B17080023001E1548
:1006E8009F159C010C309B001E129D179E16F2014F
:1006F800F301F4010B178B1708002100151195144D
:100708001510951195120800640080010131890BBC
:10071800892B0034F03021009E0024309D00080011
:100728003A30210099009A0198010800D03027003A
:100738009A0008002723942308008B120B11080045
:020000040001F9
:04000E00FCD9FFDA40
:00000001FF
