:02000000522884
:100008007E14803120007F08FC000B198B1E1528F8
:100018000B11700895000130FA007A08F2002521CA
:100028004D28911E2C2825210F3073020318F30147
:1000380023001908FA007308303E860087017A0801
:1000480081000130FA007A08F3076230EC204D286D
:10005800111E4D282100111E4D287508203E8600CE
:100068008701010823009A000130FA007A08F50791
:1000780076087502031C4D2821001112F401053081
:10008800FB000D30FA00FA0B4728FB0B472800004D
:10009800DB207C082000FF007E1009005328F001B7
:1000A800F101F201F301F401F501F60120308400B9
:1000B800003085001F3012217E1020008C2820007F
:1000C800C200740303190800C3013F084302031860
:1000D800802843084207C0004008860087010108BD
:1000E800C1004308203E8600870141088100013095
:1000F800C0004008C3076928F5013F08C000400850
:10010800F6000130C0004008F40021001116080074
:1001180022210B21FC20CA201E2120008C1229300C
:10012800C5009430C400C40B9728C50B972800005D
:1001380020008C162930C5009430C400C40BA228B6
:10014800C50BA228000072080319A728F20173083A
:100158002000C4004408BF0030306320A7282200D4
:100168008C018E0123008C018E013B3024008C0011
:100178003C308E0022009D131D11633021008E003B
:100188005F308C00951322009D01080023001E1586
:100198009F159C010C309B001E129D171D162000F8
:1001A800AF01F301210091160B178B1708002300EC
:1001B8001E159F159C010C309B001E129D171D16C5
:1001C8002000AF01F301210091160B178B170800CF
:1001D800F9007908F700F8017708F0007808F100CD
:1001E800F2017008200095000B118B168B17080080
:1001F80023001E159F159C010C309B001E129D1795
:100208009E16F401F501F6010B178B170800210063
:1002180015119514151095119512080064008001A8
:100228000131890B132900343A30210099009A01D1
:1002380098010800D03027009A000800B320182140
:0802480008008B120B110800E5
:020000040001F9
:04000E00E4D9FFDA58
:00000001FF
