:02000000552881
:100008007E14803120007F08F9000B198B1E1528FB
:100018000B11700895000130F8007808BE0009241B
:100028005028911E3428092423009D1C1E281D12C7
:100038001D1650280F30200040020318C00123006D
:100048001908F80020004008203E8600870178083B
:1000580081000130F8007808C0076230C5235028B5
:10006800111E50282100111E502873082F3E8600AB
:100078008701010823009A000130F8007808F30787
:1000880074087302031C502821001112F201533026
:10009800890B4C280000B42379082000FF007E104B
:1000A80009005628F001F101F201F301F4012030B2
:1000B8008400003085002C30EB237E102000102AAD
:1000C8007A302000D2005208D3004308D2005208E8
:1000D800E4004408D2005208E50064136508CD0026
:1000E8006408CC00E02204302000D2003D30890BA7
:1000F8007B28D20B7B280032512320004D08E100D9
:100108004C08E0002E2320004D08E3004C08E200D4
:100118006008D2005208D4006108D2005208D50005
:100128006208D2005208D6006308D2005208D700ED
:100138006417E5116508CD006408CC00E02204309E
:100148002000D2003D30890BA728D20BA728003207
:10015800512320004D08E1004C08E0002E23200028
:100168004D08E3004C08E2006008D2005208D800AD
:100178006108D2005208D9006208D2005208DA0099
:100188006308D2005208DB00E5156508CD00640855
:10019800CC00E02204302000D2003D30890BD22868
:1001A800D20BD2280032512320004D08E1004C0820
:1001B800E0002E2320004D08E3004C08E200600810
:1001C800D2005208DC006108D2005208DD00620843
:1001D800D2005208DE006308D2005208DF000D305A
:1001E800D2005208CC005330B522080073302000EA
:1001F800D2005208D3004308D2005208E200440853
:10020800D2005208E30062136308CD006208CC00F4
:10021800E02204302000D2003D30890B1129D20B96
:10022800112900320B2320004D08E1004C08E000A2
:100238006008D2005208D4006108D2005208D500E4
:100248006217E3116308CD006208CC00E022043095
:100258002000D2003D30890B2F29D20B2F290032E4
:100268000B2320004D08E1004C08E0006008D20094
:100278005208D6006108D2005208D700E315630877
:10028800CD006208CC00E02204302000D2003D30CE
:10029800890B4C29D20B4C2900320B2320004D0826
:1002A800E1004C08E0006008D2005208D80061085C
:1002B800D2005208D9000730D2005208CC0053307F
:1002C800B522080079302000D2005208D300430834
:1002D800D2005208E4004408D2005208E50064172E
:1002E800E5116508CD006408CC00E0220430200048
:1002F800D2003D30890B7E29D20B7E290032512352
:1003080020004D08E1004C08E0002E2320004D0895
:10031800E3004C08E2006008D2005208D4006108EB
:10032800D2005208D5006208D2005208D6006308ED
:10033800D2005208D700E5156508CD006408CC0046
:10034800E02204302000D2003D30890BA929D20BCD
:10035800A9290032512320004D08E1004C08E00093
:100368002E2320004D08E3004C08E2006008D2006C
:100378005208D8006108D2005208D9006208D20099
:100388005208DA006308D2005208DB000930D200B4
:100398005208CC005330B52208006F302000D2003C
:1003A8005208D3004308D2005208DC004408D200A7
:1003B8005208DD005C135D08CD005C08CC00E0222B
:1003C80004302000D2003D30890BE829D20BE829FF
:1003D8000032512320004D08D9004C08D8002E23A4
:1003E80020004D08DB004C08DA005808D2005208FB
:1003F800D4005908D2005208D5005A08D200520831
:10040800D6005B08D2005208D7000530D200520847
:10041800CC005330B52208000624E423D523A323B7
:100428000224F12320008C1219302000E7005830F4
:10043800890B1C2AE70B1C2A000020008C1664007C
:1004480020003E080319232ABE010B304002031C7A
:100458002F2AC001232A40080319232A4008E7004D
:100468006708C100E8014108680203184C2A6808B7
:10047800203E860087010108E7006808423E8600A2
:100488008701670881000130E7006708E807372A15
:100498008722232A512320004D08DB004C08DA006C
:1004A8002E2320004D08DD004C08DC000B23200023
:1004B8004D08DF004C08DE00243021009D006D301F
:1004C8002000D2005208D3005A08D2005208D400A3
:1004D8005B08D2005208D5005C08D2005208D6004A
:1004E8005D08D2005208D7005E08D2005208D80032
:1004F8005F08D2005208D9000730D2005208CC0059
:100508005330B52208009C2A20004108E6006608FE
:10051800CC004230B52208008D2308004E22080086
:100528006420080066210800D1210800FA2008008C
:1005380020004208633A0319902A0E3A0319922AB6
:10054800023A0319982A1C3A03199A2A073A0319F6
:10055800882A0D3A0319962A033A0319942AB42AC9
:1005680008002000CF00720303190800D0014C08CE
:1005780050020318D22A50084F07CD004D088600B4
:1005880087010108CE0050082F3E860087014E08DB
:1005980081000130CD004D08D007BB2AFD23F301AF
:1005A80020004C08CD004D08F4000130CD004D0866
:1005B800F200210011160800F7302000CE004E0886
:1005C800D00550088E008C128C16CF0110304F02C7
:1005D800031808004C1CF22A5015F62AFB30CE00EE
:1005E8004E08D00550088E000130CD36CC0C890B52
:1005F800F92AD01550088E00F730CE004E08D005E5
:1006080050088E000130CE004E08CF07EA2A153078
:1006180021009D00000021009D149D18112B1C082D
:100628002000CE00CF014E08D0004F08D10008307E
:10063800D035D10D890B1C2B21001B082000CE00C2
:10064800CF014E08D0044F08D1045108CD005008FE
:10065800CC000800113021009D00000021009D14ED
:100668009D18342B1C082000CE00CF014E08D00066
:100678004F08D1000830D035D10D890B3F2B210010
:100688001B082000CE00CF014E08D0044F08D1042B
:100698005108CD005008CC000800093021009D0009
:1006A800000021009D149D18572B1C082000CE0027
:1006B800CF014E08D0004F08D1000830D035D10DF9
:1006C800890B622B21001B082000CE00CF014E08A9
:1006D800D0044F08D1045108CD005008CC000800C0
:1006E80022008C018E01043023008C0003308E0020
:1006F8003B3024008C003C308E0022009D131D11DD
:10070800633021008E005F308C00951322009D011C
:10071800080020004308D1005108D2004408D10045
:100728005108D3004108D1005108CC004230B5220D
:1007380020005308CD005208CC00E0220800230016
:100748001E159F159C010C309B001E129D171D162F
:100758002000BF01C001210091160B178B1708005C
:1007680023001E159F159C010C309B001E129D171F
:100778001D162000BF01C001210091160B178B1711
:100788000800F7007708F500F6017508F00076080C
:10079800F1002000BE01700895000B118B168B1715
:1007A800080023001E159F159C010C309B001E128B
:1007B8009D179E16F201F301F4010B178B17080021
:1007C8002100151195141510951195120800640053
:1007D80080010131890BEC2B0034F03021009E00A0
:1007E80024309D0008003A30210099009A019801B0
:1007F80008002100911223001D120800D0302700A4
:100808009A0008007423F72308008B120B110800C4
:020000040001F9
:04000E00FCD9FFDA40
:00000001FF
