:02000000562880
:100008007E14803120007F08F9000B198B1E1528FB
:100018000B11700895000130F8007808BE003824EC
:100028005128911E3628382423009D1C20281D1293
:100038001D162000C00151280F302000400203186F
:10004800C00123001908F80020004008203E86005F
:100058008701780881000130F8007808C00762300D
:10006800EF235128111E51282100111E5128730811
:100078002F3E86008701010823009A000130F8000E
:100088007808F30774087302031C51282100111221
:10009800F2017D30890B4E28DE2379082000FF000D
:1000A8007E1009005728F001F101F201F301F40173
:1000B80020308400003085002C301C247E10200065
:1000C800E0297A302000D2005208D3004308D20039
:1000D8005208E4004408D2005208E5006413650899
:1000E800CD006408CC00F12204302000D2003D305D
:1000F800890B7C28D20B7C280032622320004D0813
:10010800E1004C08E0003F2320004D08E3004C08C4
:10011800E2006008D2005208D4006108D2005208F8
:10012800D5006208D2005208D6006308D2005208EF
:10013800D7006417E5116508CD006408CC00F122EA
:1001480004302000D2003D30890BA828D20BA82803
:100158000032622320004D08E1004C08E0003F23F4
:1001680020004D08E3004C08E2006008D200520865
:10017800D8006108D2005208D9006208D20052089B
:10018800DA006308D2005208DB00E5156508CD00E7
:100198006408CC00F12204302000D2003D30890BE5
:1001A800D328D20BD3280032622320004D08E10067
:1001B8004C08E0003F2320004D08E3004C08E20013
:1001C8006008D2005208DC006108D2005208DD0045
:1001D8006208D2005208DE006308D2005208DF002D
:1001E8000D30D2005208CC005330C62208007330BC
:1001F8002000D2005208D4004308D2005208E4007C
:100208004408D2005208E50064136508CD0064086C
:10021800CC00F12204302000D2003D30890B122995
:10022800D20B122900321C2320004D08E3004C0891
:10023800E2006208D2005208D5006308D2005208D2
:10024800D6006417E5116508CD006408CC00F122DA
:1002580004302000D2003D30890B3029D20B3029E0
:1002680000321C2320004D08E3004C08E20062081D
:10027800D2005208D7006308D2005208D800E5150A
:100288006508CD006408CC00F12204302000D200BB
:100298003D30890B4D29D20B4D2900321C232000FB
:1002A8004D08E3004C08E2006208D2005208D90069
:1002B8006308D2005208DA000730D2005208CC0096
:1002C800543085232000D3005308E1006108D20090
:1002D8005208DB000830D2005208CC005430C62245
:1002E800080079302000D2005208D3004308D20019
:1002F8005208E4004408D2005208E5006417E511EA
:100308006508CD006408CC00F12204302000D2003A
:100318003D30890B8D29D20B8D29003262232000B4
:100328004D08E1004C08E0003F2320004D08E300A1
:100338004C08E2006008D2005208D4006108D200DC
:100348005208D5006208D2005208D6006308D200CD
:100358005208D700E5156508CD006408CC00F122E5
:1003680004302000D2003D30890BB829D20BB829BF
:100378000032622320004D08E1004C08E0003F23D2
:1003880020004D08E3004C08E2006008D200520843
:10039800D8006108D2005208D9006208D200520879
:1003A800DA006308D2005208DB000930D200520894
:1003B800CC005330C6220800352432240E24FF23F3
:1003C800CD232E24222420008C1219302000E7008F
:1003D8005830890BED29E70BED29000020008C1619
:1003E800640020003E080319F429BE010B304002C6
:1003F800031C002AC001F42940080319F429400805
:10040800E7006708C100C001E80141086802031855
:100418001E2A6808203E860087010108E700680850
:10042800423E86008701670881000130E7006708BF
:10043800E807092A9822F4296F302000D2005208D0
:10044800D3004308D2005208DC004408D200520806
:10045800DD005C135D08CD005C08CC00F12204309F
:100468002000D2003D30890B372AD20B372A0032C0
:10047800622320004D08D9004C08D8003F232000F3
:100488004D08DB004C08DA005808D2005208D400A6
:100498005908D2005208D5005A08D2005208D6008E
:1004A8005B08D2005208D7000530D2005208CC00B1
:1004B8005330C6220800622320004D08DB004C0898
:1004C800DA003F2320004D08DD004C08DC001C2327
:1004D80020004D08DF004C08DE00243021009D007C
:1004E8006D302000D2005208D3005A08D2005208BA
:1004F800D4005B08D2005208D5005C08D20052082C
:10050800D6005D08D2005208D7005E08D200520813
:10051800D8005F08D2005208D9000730D20052082C
:10052800CC005330C6220800AD2A20004108E6005E
:100538006608CC004230C6220800B72308005F22B4
:100548000800652008007521080020220800FB200B
:10055800080020004208633A0319A12A0E3A031939
:10056800A32A023A0319A92A1C3A0319AB2A073A03
:100578000319992A0D3A0319A72A033A0319A52A38
:10058800C52A08002000CF00720303190800D00113
:100598004C0850020318E32A50084F07CD004D08B5
:1005A800860087010108CE0050082F3E860087018B
:1005B8004E0881000130CD004D08D007CC2A152403
:1005C800F30120004C08CD004D08F4000130CD00A7
:1005D8004D08F200210011160800F7302000CE0067
:1005E8004E08D00550088E008C128C16CF011030A2
:1005F8004F02031808004C1C032B5015072BFB3027
:10060800CE004E08D00550088E000130CD36CC0CF7
:10061800890B0A2BD01550088E00F730CE004E08F3
:10062800D00550088E000130CE004E08CF07FB2AB7
:10063800153021009D00000021009D149D18222BDB
:100648001C082000CE00CF014E08D0004F08D10072
:100658000830D035D10D890B2D2B21001B08200027
:10066800CE00CF014E08D0044F08D1045108CD0068
:100678005008CC000800113021009D000000210026
:100688009D149D18452B1C082000CE00CF014E0854
:10069800D0004F08D1000830D035D10D890B502B30
:1006A80021001B082000CE00CF014E08D0044F08BF
:1006B800D1045108CD005008CC00080009302100B1
:1006C8009D00000021009D149D18682B1C08200027
:1006D800CE00CF014E08D0004F08D1000830D035E9
:1006E800D10D890B732B21001B082000CE00CF01F0
:1006F8004E08D0044F08D1045108CD005008CC0052
:1007080008002000CF00D001D1014C085102031885
:100718009C2B51084F07CD004D0886008701010822
:10072800CE004E08D0060130CD004D08D107892BE8
:100738005008080022008C018E01043023008C0030
:1007480003308E003B3024008C001C308E002200C9
:100758009D131D11633021008E005F308C009513AE
:1007680022009D01080020004308D1005108D20052
:100778004408D1005108D3004108D1005108CC00E9
:100788004230C62220005308CD005208CC00F12286
:10079800080023001E159F159C010C309B001E129B
:1007A8009D171D162000BF01C001210091160B17CF
:1007B8008B17080023001E159F159C010C309B0009
:1007C8001E129D171D162000BF01C00121009116A1
:1007D8000B178B170800F7007708F500F601750866
:1007E800F0007608F1002000BE01700895000B119A
:1007F8008B168B17080023001E159F159C010C30C3
:100808009B001E129D179E16F201F301F4010B17AF
:100818008B170800210015119514151095119512C4
:1008280008002100911223001D122000C0010800B9
:10083800640080010131890B1D2C0034F030210047
:100848009E0024309D0008003A30210099009A014A
:1008580098010800D03027009A00080023001F16CE
:0E08680008009E23282408008B120B110800A4
:020000040001F9
:04000E00FCD9FFDA40
:00000001FF
