:02000000562880
:100008007E14803120007F08F9000B198B1E1528FB
:100018000B11700895000130F8007808D800822686
:100028005128911E3628822623009D1C20281D1247
:100038001D162000DA0151280A3020005A02031840
:10004800DA0123001908F80020005A084E3E8600FD
:100058008701780881000130F8007808DA076230F3
:1000680039265128111E51282100111E51287308C4
:10007800A03E86008701010823009A000130F8009D
:100088007808F30774087302031C51282100111221
:10009800F2017D30890B4E28282679082000FF00C0
:1000A8007E1009005728F001F101F201F301F40173
:1000B8004E3084000030850018306626A030840059
:1000C800003085000F3066267E102000512B20005E
:1000D800AF0027132808A1002708A000E324043054
:1000E8002000A9003D30890B7728A90B772800321A
:1000F800662520002108AE002008AD002717A811AA
:100108002808A1002708A000E32404302000A90043
:100118003D30890B8D28A90B8D28003266252000DB
:100128002108B1002008B0002D09A9002E09AA0055
:10013800A90A0319AA0A30082907AB0031082A3D81
:10014800AC002F08860087012B08C03F2C08C13F50
:100158002F0886008701403FB400413FB500B51F16
:10016800BA28B409B509B40A0319B50AA8152808A4
:10017800A1002708A000E32404302000A9003D3096
:10018800890BC428A90BC428003266252000210841
:10019800B1002008B0002D09A9002E09AA00A90A5B
:1001A8000319AA0A30082907AB0031082A3DAC0018
:1001B8002608860087012B08C03F2C08C13F260867
:1001C80086008701403FB200413FB300B31FF128CA
:1001D800B209B309B20A0319B30A3508803AA9006B
:1001E8003308803A2902031DFB2832083402031819
:1001F800022920003308B5003208B4002000350871
:10020800803AA90081302902031D0C297330340279
:10021800031C10290230080020003508803AA90084
:1002280080302902031D1A295630340203181E296A
:1002380001300800003008002000C901CA010A3056
:10024800B6003608C000C7014708B6003608A00047
:100258004930D0232000C1010B30410203180800A7
:100268004008B6003608A00049303D252000C201EC
:10027800C8014530B6003608A6004A08A800490853
:10028800A70043306B202000B7003708C800480398
:10029800031D5F290230420603197A294808B6006F
:1002A8003608C2000730470203187A290130B60021
:1002B8003608C7077029023020004806031D762932
:1002C800420303197A294808B6003608C2004708CD
:1002D80003197A290130C7024708B6003608A0007A
:1002E8004930D02320004808031D3D29200040083C
:1002F800B6000330B635FF3E031D7E293635F0398A
:10030800B7003708C8004708B6003608C804663082
:10031800B6003608B9004308B6003608BA004408E3
:10032800B6003608BB004508B6003608BC004608CB
:10033800B6003608BD004808B6003608BE000630CC
:10034800B6003608A0003930CF252000B70037089E
:10035800B8003808B6003608BF000730B6003608BF
:10036800A0003930122501302000C0020130B6004B
:100378003608C10730297A302000A6002608A700D1
:100388005D08A6002608B8005E08A6002608B90081
:1003980038133908A1003808A000E32404302000ED
:1003A800A6003D30890BD629A60BD6290032AC25EC
:1003B80020002108B5002008B40089252000210864
:1003C800B7002008B6003408A6002608A80035089B
:1003D800A6002608A9003608A6002608AA0037089D
:1003E800A6002608AB003817B9113908A10038084B
:1003F800A000E32404302000A6003D30890B022A27
:10040800A60B022A0032AC2520002108B5002008DE
:10041800B400892520002108B7002008B600340858
:10042800A6002608AC003508A6002608AD00360848
:10043800A6002608AE003708A6002608AF00B915A2
:100448003908A1003808A000E32404302000A600E1
:100458003D30890B2D2AA60B2D2A0032AC25200011
:100468002108B5002008B400892520002108B7001C
:100478002008B6003408A6002608B0003508A600F3
:100488002608B1003608A6002608B2003708A600DC
:100498002608B3000D30A6002608A0002730122534
:1004A800080004302000A6002608A0005C30CF25F4
:1004B8002000A7002708B000300803196C2A65300F
:1004C800A6002608A800A001A00A283012250800C6
:1004D80073302000A6002608A8005D08A60026089C
:1004E800B3005E08A6002608B40033133408A10040
:1004F8003308A000E32404302000A6003D30890B17
:10050800832AA60B832A0032662520002108B20020
:100518002008B1003108A6002608A9003208A60064
:100528002608AA003317B4113408A1003308A00024
:10053800E32404302000A6003D30890BA12AA60B35
:10054800A12A0032662520002108B2002008B10047
:100558003108A6002608AB003208A6002608AC0021
:10056800B4153408A1003308A000E32404302000A7
:10057800A6003D30890BBE2AA60BBE2A003266258E
:1005880020002108B2002008B1003108A600260882
:10059800AD003208A6002608AE000730A6002608DF
:1005A800A0002830CF252000A7002708B000300879
:1005B800A6002608AF000830A6002608A0002830AC
:1005C8001225080079302000A6002608A7005D083B
:1005D800A6002608B8005E08A6002608B900381745
:1005E800B9113908A1003808A000E324043020001C
:1005F800A6003D30890BFE2AA60BFE2A0032AC2548
:1006080020002108B5002008B40089252000210811
:10061800B7002008B6003408A6002608A800350848
:10062800A6002608A9003608A6002608AA0037084A
:10063800A6002608AB00B9153908A1003808A000A3
:10064800E32404302000A6003D30890B292BA60B9B
:10065800292B0032AC2520002108B5002008B40061
:10066800892520002108B7002008B6003408A60014
:100678002608AC003508A6002608AD003608A600F6
:100688002608AE003708A6002608AF000930A600E5
:100698002608A0002730122508007F267C26582629
:1006A8004926172678266C2620008C12193020003F
:1006B800CC005830890B5E2BCC0B5E2B0000200041
:1006C8008C166400200058080319652BD8010B30DC
:1006D8005A02031C712BDA01652B5A080319652B82
:1006E8005A08CC004C08DB00DA01CD015B084D024A
:1006F80003188F2B4D084E3E860087010108CC0059
:100708004D085C3E860087014C0881000130CC0012
:100718004C08CD077A2B4724652B6F302000A600A4
:100728002608A7005D08A6002608B0005E08A600F7
:100738002608B10030133108A1003008A000E324D6
:1007480004302000A6003D30890BA82BA60BA82B4F
:100758000032AC2520002108AD002008AC00892516
:1007680020002108AF002008AE002C08A6002608AB
:10077800A8002D08A6002608A9002E08A60026080D
:10078800AA002F08A6002608AB000530A6002608F8
:10079800A0002730122508002000A3002008AB3E47
:1007A800840084300318013E85000008A100210858
:1007B800A2002308860087010111221801152000D4
:1007C8002308860087018111A218811520002308BB
:1007D80086008701011222190116200023088600CD
:1007E80087018113A21981172000230A8600870137
:1007F8000110221A01142000230A860087018110A3
:10080800A21A81142000230A860087010111221BE5
:1008180001150800AC2520002108AF002008AE0013
:10082800892520002108B1002008B0006625200095
:100838002108B3002008B200243021009D006D304B
:100848002000A6002608A7002E08A6002608A80053
:100858002F08A6002608A9003008A6002608AA0026
:100868003108A6002608AB003208A6002608AC000E
:100878003308A6002608AD000730A6002608A00009
:10088800273012250800602C20005B08CB004B089D
:10089800A0005C301225080020210800012608006D
:1008A8000E240800BF210800E62208009123080052
:1008B80055220800B324080020005C08263A0319D2
:1008C8005E2C453A0319522C053A0319502C0B3A61
:1008D8000319542C023A03195A2C1C3A03195C2C9C
:1008E800073A0319482C0D3A0319582C033A0319EF
:1008F800562C7E2C0800C73440340034CF344034A2
:1009080000346F34403400343F34403400340F3402
:10091800893400340F34883400340F34A43400345C
:100928000F34093401340F34083401340F342434BB
:1009380001340F34323401340034013402340334C6
:100948000434053406340734083409340A340434CA
:10095800053407340334233463346B347B34683010
:100968002000A5002508A6006F30A5002508A700CF
:100978006C30A5002508A8006130A5002508A9004D
:10098800AA01AA30A5002508AB00FE30A50025085D
:10099800AC004030A5002508AD00640029302000D7
:1009A800A5009430890BD62CA50BD62C0000083056
:1009B8002000A5002508A00026301225D12CF730EC
:1009C8002000A2002208A40524088E0020008C1212
:1009D80020008C16A3011030230203180800201CE5
:1009E800F72C2415FB2CFB30A2002208A4052408B0
:1009F8008E000130A136A00C890BFE2C2000A41516
:100A080024088E00F7302000A2002208A40524083C
:100A18008E000130A2002208A307EF2C2000A400BA
:100A2800720303190800A3012008230203182F2DBD
:100A380023082407A1002108860087010108A200D5
:100A48002308A03E86008701220881000130A1000A
:100A58002108A307182D5F26F30120002008A10014
:100A68002108F4000130A1002108F200210011162C
:100A780008002000A2002008A03E8400843003184B
:100A8800013E85000008A1002108A300220A860073
:100A980087010112231801162000220A8600870107
:100AA8008112A31881162000220A860087010113EB
:100AB800231901172000220A860087018113A31930
:100AC80081170800153021009D00000021009D14A9
:100AD8009D186C2D1C082000A200A3012208A40068
:100AE8002308A5000830A435A50D890B772D210012
:100AF8001B082000A200A3012208A4042308A504BF
:100B08002508A1002408A0000800113021009D003C
:100B1800000021009D149D188F2D1C082000A200A4
:100B2800A3012208A4002308A5000830A435A50DB8
:100B3800890B9A2D21001B082000A200A30122087E
:100B4800A4042308A5042508A1002408A00008007F
:100B5800093021009D00000021009D149D18B22D30
:100B68001C082000A200A3012208A4002308A50055
:100B78000830A435A50D890BBD2D21001B082000C8
:100B8800A200A3012208A4042308A5042508A100A3
:100B98002408A00008002000A400A301A501200843
:100BA80025020318E62D25082407A1002108860040
:100BB80087010108A2002208A3060130A10021082C
:100BC800A507D32D2308080022008C018E010430CC
:100BD80023008C0003308E003B3024008C001C3036
:100BE8008E0022009D131D11633021008E005F309E
:100BF8008C00951322009D01080020005D08A500C7
:100C08002508A6005E08A5002508A7005B08A50022
:100C18002508A0005C30122520002708A10026081E
:100C2800A000E324080023001E159F159C010C302A
:100C38009B001E129D171D162000D901DA01210004
:100C480091160B178B17080023001E159F159C0182
:100C58000C309B001E129D171D162000D901DA01C9
:100C6800210091160B178B170800F7007708F5007D
:100C7800F6017508F0007608F1002000D801700828
:100C880095000B118B168B17080023001E159F1556
:100C98009C010C309B001E129D179E16F201F30159
:100CA800F4010B178B170800210015119514151066
:100CB8009511951208002100911223001D122000A1
:100CC800DA010800640080010131890B672E0034C5
:100CD800F03021009E0024309D0008003A302100A9
:100CE80099009A0198010800D03027009A0008005E
:100CF80023001F160800E825722608008B120B1126
:020D08000800E1
:020000040001F9
:04000E00FCD9FFDA40
:00000001FF
