:020000040000FA
:0200000048288E
:100008007E1480310B198B1E11280B112000390822
:1000180095000130BD00BA2246282000911E2E28E6
:10002800BA2223009D1C1D281D121D162000BC018C
:1000380046280A3020003C020318BC013C082F3E29
:10004800860087012300190881002000BC0A62305D
:1000580082224628111E46282100111E46287B08A8
:10006800203E86008701010823009A00FB0A7A08CF
:100078007B02031C462821001112F9017D30890BEF
:10008800432847227E10090049282030F801F90149
:10009800FA01FB0184000030850028309B227E1085
:1000A80020008329CF0049134A08F2004908F100CB
:1000B800CA210430F5003E30890B6028F50B602812
:1000C800212272082000CC007108CB004917CA1100
:1000D8004A08F2004908F100CA210430F5003E3010
:1000E800890B7428F50B7428212272082000CE0091
:1000F8007108CD004B084D02F5004C084E3BF60048
:100108004F08860087017508C03F7608C13F4F0831
:100118008600403FD200413FD300D31F9828D20920
:10012800D309D20A0319D30ACA154A08F2004908A2
:10013800F100CA210430F5003E30890BA128F50BE7
:10014800A128212272082000CE007108CD004B089A
:100158004D02F5004C084E3BF60048088600870122
:100168007508C03F7608C13F48088600403FD00068
:10017800413FD100D11FC528D009D109D00A0319A0
:10018800D10A5308803AF5005108803A7502031DD8
:10019800CF28500852020318D62820005108D3004F
:1001A8005008D20020005308803AF50081307502CB
:1001B800031DE0287330520203180234200053084C
:1001C800803AF50080307502031DEC285630520243
:1001D800031C013400340A30E401E501DC0064301A
:1001E800E301F10154212000DD015C08F1006430D5
:1001F800AA212000DE016130C8006508CA00640831
:10020800C9005F3056202000E600660B172902302F
:100218005E0603192C296608DE00073063020318FE
:100228002C29E30A242902306606031D28295E0BBF
:100238001E292C296608DE00630803192C29E3030C
:100248006308F1006430542120006608031DFF286C
:100258005C0EF039E600F030E6056308E604663027
:10026800D5005F08D6006008D7006108D80062088A
:10027800D9006608DA000630F10055303522D4007E
:10028800DB00243021009D000730F1005530E921C2
:1002980020000B30DC03DD0A5D0203180800F92892
:1002A800F30071088C3E840082300318013E8500FB
:1002B8000008F20073088600870101117218011501
:1002C800730886008111F2188115730886000112DF
:1002D80072190116730886008113F2198117730ABF
:1002E80086000110721A0114730A86008110F21A2E
:1002F8008114730A86000111721B01150800BD22C2
:10030800B722942268225822B322A72220008C12F6
:100318001930F7005830890B8F29F70B8F290032D5
:1003280020008C16640020003D0803199629BD01A1
:100338000B303C02031CA229BC0196293C08031976
:1003480096293C08BB00BC01EF209629F3007108F0
:10035800773E840082300318013E85000008F200D1
:10036800730A86008701011272180116730A860043
:100378008112F2188116730A860001137219011787
:10038800730A86008113F21981170800F4117408A2
:100398008E0020008C1220008C16F301711CD629C7
:1003A8007415D729741174088E00F236F10CF415FF
:1003B800740820008E00F411740820008E0010309C
:1003C800F30A730203180800D229F400790BED2907
:1003D8000800F301710873020318FF297308203E0F
:1003E8008600870173087407F200840085010008FD
:1003F8008100F30AEE29A122FB017108FA000130FD
:10040800F90021001116080022008C018E01043029
:1004180023008C0003308E003B3024008C001C30FD
:100428008E0022009D131D11633021008E005F3065
:100438008C00951322009D010800153021009D00B5
:10044800000021009D149D18272A1C08F300F401C0
:10045800F400F3011B08F3047408F2007308F100B8
:100468000800F400F301F501710875020318452A24
:1004780075087407F200860087010108F306F50A7B
:10048800382A7308080023001E159F159C010C309C
:100498009B001E129D171D16F8012000BC012100AB
:1004A80091160B178B1708001E159F159C010C3011
:1004B8009B001E129D171D16F8012000BC0121008B
:1004C80091160B178B17080023001E159F159C010A
:1004D8000C309B001E129D179E16F901FB01FA01B4
:1004E8000B178B170800003401340234033404342A
:1004F800053406340734083409340A34F000B900E6
:10050800BA01BD01390895000B118B168B1708002D
:100518000434053407340334233463346B347B34B4
:1005280021001511951415109511951208006400F5
:1005380080010131890B9C2A0034911223001D127D
:100548002000BC010800F03021009E0024309D00EE
:1005580008003A30210099009A0198010800D0302B
:1005680027009A00080023001F1608008B120B11A1
:0605780008000822AD2A74
:020000040001F9
:04000E00FCD9FFDA40
:00000001FF
