:020000040000FA
:02000000402896
:100008007E1480318B190B1C0B289B263E280B1F56
:100018003E282100111C15282000111C15289C259C
:100028003E282100111F27282000111F27288B2672
:1000380071082000DD007008DC000130F200720851
:10004800ED00BA263E282100911E33282000911E7B
:1000580033285F088A005E080A0080313E282100A4
:10006800111E3E282000111E3E2861088A006008E3
:100078000A0080317E1009004128F901FA014E304A
:1000880084000030850020306126A03084000030D4
:100098008500183061267E102000D42CF330F5003E
:1000A8008530F600412320006608B6003608BA00FD
:1000B8003A30F5000030F600F701F70AF124BD30B8
:1000C800F5008630F600412320003508B6003608D2
:1000D800BA000A303A02031CA6280A30F30000309E
:1000E800F4003A08B600B7013608F5003708F600FC
:1000F8002D2273082000B8003808B9003030B60047
:100108003608B9070A30F3000030F4003A08B600A0
:10011800B7013608F5003708F6008E21730820006D
:10012800B8003808BA003030B6003608BA073A3096
:10013800F5000030F600F701F70AF1243930F50030
:100148000030AF2820003508303EB6003608BA0027
:100158003A30F5000030F600F701F70AF124F930DB
:10016800F5008330F600412302306923200034086B
:10017800F6003308F5003508B6003608F700F12414
:10018800F930F5008330F600412308002F302000B5
:10019800A4008630A500A83073222000AC002C08EB
:1001A800AD002D080319DA28013008003430A40006
:1001B8008630A500A83073222000AC002C08AD00C2
:1001C8002D080319E92802300800FF30A400853003
:1001D800A500A83073222000AC002C08AD002D0823
:1001E8000319F828073008005B30A4008630A50002
:1001F800A83073222000AC002C08AD002D0803198C
:100208000729093008009630A4008630A500A830D8
:1002180073222000AC002C08AD002D080319162904
:10022800043008003730A4008630A500A8307322B7
:100238002000AC002C08AD002D0803192529063034
:1002480008004D30A4008630A500A8307322200095
:10025800AC002C08AD002D0803193429083008001B
:10026800003008002000A0002008F7007708A3004D
:100278007408A2007308A1000130F5020030F63BB3
:10028800750A031D5929760A031D5929F301F4013A
:1002980008000130F7007708A3070130A1070030F4
:1002A800A23D0130F5020030F63B230886008701A5
:1002B8000108031977292108840022088500120003
:1002C800031977297508760403197729210884000A
:1002D800220885000008F700230886008701010826
:1002E800770603194D292108840022088500000893
:1002F800F700F801F709F809F70A0319F80A2308BB
:100308008600870101087707F30078080318780A40
:10031800F40008002000A101F41F9929F309F40949
:10032800F30A0319F40AA101A10AF61FA429F50981
:10033800F609F50A0319F60A0130F7007708A1064D
:10034800A201A301730874040319D329A001A00A08
:10035800F41BB8290130F335F40D890BAF290130AE
:10036800F7007708A007AC290130A235A30D890B47
:10037800B92974087602031DC32973087502031C82
:10038800CA297308F5027408F63B22140130F436C2
:10039800F30C890BCB290130A002031DB8292108D1
:1003A8000319DB29A209A309A20A0319A30A23082E
:1003B800F4002208F30008000C2AA0302000B30043
:1003C8008630B4000330C5004508B5005220080047
:1003D8000230462574082000DD007308DC007A240A
:1003E80008005C2408002000640303190800B126F3
:1003F80001302000C5004508E4000800AE262000B2
:10040800E401080022008C12080022008C16080063
:1004180020004408C500C6014608003A0319152AF9
:100428002C2A45084F3A0319092A1C3A0319022AAB
:10043800073A0319F529353A0319EC290E3A031935
:10044800062A1C3A0319F729073A0319E1292C2A25
:1004580008002000A101F61F382AF509F609F50A57
:100468000319F60AA101A10AF41F3F2AF309F409A6
:10047800F30A0319F40A730874040319662AA0011D
:10048800A00AF41B512A0130F335F40D890B482AD0
:100498000130F7007708A007452A74087602031D83
:1004A800572A73087502031C5D2A7308F50274083D
:1004B800F63B0130F436F30C890B5E2A0130A002BA
:1004C800031D512A210803196E2AF509F609F50AB0
:1004D8000319F60A7608F4007508F30008002000EE
:1004E800AB00240825040319B12A2508F4002408C0
:1004F800F300B62474082000AA007308A900A82AEB
:100508002508F4002408F3002A08F6002908F50055
:100518002B08362173087404031D952A20002B0824
:100528000800200024088400250885000008A6008B
:10053800A7012608F3002708F4002B08013E8925A7
:100548002000A8002808AB002B080319B12A2B08A3
:10055800860087010108031D842A003008000B303B
:100568002000B4002630B3005D30890BB92AB30BE4
:10057800B92AB40BB92A0032B426003A0319C62A9C
:100588009824C02A9130F5008630F60041230230C5
:100598006923BD30F5008530F60041230230692318
:1005A800DA30F5008330F600412302306923CB307E
:1005B800F5008530F6004123023069237530F500D7
:1005C8008530F60041230230692308009824200072
:1005D800AE006708A83E860087012E0881006708DC
:1005E800A83E860087010A300106031D0F2B023042
:1005F80067020318012B0330092B6708FF3EA83E4A
:10060800860087018101CA202000AE002E08AF00B5
:10061800E7012F0808000130AE002E08E707103068
:1006280067020318E70100300800EA222000CB0027
:100638004B08CD002A2BB5230800210028082000EC
:10064800CB004B08E6000800E60108004D08CB0087
:10065800CC014C08003A0319322B402B4B08003AC6
:100668000319402B043A03191F2B023A0319212BB3
:100678000E3A0319282B402B0800F70176082000B2
:10068800A1007508A0007708200784002108031836
:10069800210A8500120003190800C126003A03192F
:1006A800512B76082000A1007508A00077082007C4
:1006B800840021080318210A85000008FC23013062
:1006C8002000A0002008F707422B2000B100EA22F2
:1006D8002000B0003008B2003208310603198B2B15
:1006E800073032060319080008303206031D7E2B36
:1006F800E601080009303206031908000430320602
:10070800031D8B2B0430B0003008E80008003208C5
:100718003106031908006B2B210091122B30F300CE
:100728000530F4007926210011120E30F30005304F
:10073800F4007326083023009F0090309D00243079
:100748009E0044309B009C01FA012000EC01083017
:10075800F5007508F900EB01EA01E901210091169D
:10076800080021002D082000C7004708E600BF3018
:10077800A4008630A500A83073222000C7004708CF
:10078800C9000130C7004708C90749088600870122
:100798000108C8004808CA004A08C7004708C4003A
:1007A80057088A0056080A00833108004134543437
:1007B8002B34433457344A34413450343D34223492
:1007C8007334613475346C34323422342C3422342A
:1007D8007234693463346B34683475346E34743409
:1007E800653472343034323422340D340A340034EF
:1007F800F40079080319FD2B2100111A072C74083D
:1008080023009A001A2C11127408F3007A084E3E3D
:1008180086008701730881000130F3007308FA0726
:1008280008307A020318FA010130F9022100111682
:10083800080022008C018E011F3021008C002F300F
:100848008E000F3023008E0007308C0010302400FB
:100858008C008E012100951322009D0127001312A0
:1008680012161116C530F3000630F4006D268B15EC
:1008780008002000E5010230D9252000ED01AE2650
:100888002000E4018530F3000630F40067261330B9
:10089800F3000630F4006D262000E3010130F50076
:1008A8007508E200E030F3000130F4007F2608000C
:1008B80020006508031D6E2C0130BB003B08E500D5
:1008C8004630B3008630B4000630BB003B08B500A4
:1008D800522008002000E5013F30B3008630B40004
:1008E8000630BB003B08B5005220080020005D0818
:1008F800C3005C08C2006508031D952C4208BB00B4
:100908003B08BC004308BB003B08BD003C30B300BB
:100918000030B4000230BB003B08B5005220013063
:1009280069232000ED010800F4012000690803197B
:10093800992C6A08A03E860087010108F300730815
:10094800F4000130F3007308EA0708306A0203185C
:10095800EA012100911201302000E90221009116DC
:10096800740808007408F8007308F7007308840016
:100978007408850012000319C62C0130F3070030F3
:10098800F43DBA2C7709F5007809F600F50A031941
:10099800F60A73087507F3007408763DF40008003A
:1009A800542626263D248B170B17B322B426003A6B
:1009B8000319DF2C192320006D03031DE42C7A246E
:1009C800200068080319DA2CE80153302100B80028
:1009D80038082000C400E021DA2CF80177087802F2
:1009E80003180800C126003A0319F62C76082000DF
:1009F800A1007508A00078082007840021080318C2
:100A0800210A85000008FC2301302000A0002008EE
:100A1800F807F22C083079020318282D20006C08FA
:100A28004E3E86008701010823009A000130F0003D
:100A380070082000EC0708306C020318EC01013044
:100A4800F0007008F90708002100111208002300BF
:100A58009D1C302D1D121D161908F00020006B0872
:100A6800A03E86008701700881000130F000700800
:100A7800EB0708306B020318EB010130F000700837
:100A8800E9070800F6007608F500F50DF50D2100D8
:100A98001D087506833975069D001D140D30890BD8
:100AA800532D000021009D149D18582D1C08F4009A
:100AB8001B08F30008002000990163309700C0303C
:100AC80096001708DB001608DA001110210011142F
:100AD800C430F3000630F400672611302000980077
:100AE8000800413454342B3443344934503453349B
:100AF800453452345634453452343D3431342C3430
:100B0800383430340D340A340034F5007508860062
:100B1800870101087306031D932D750808007508E1
:100B280086008701F50A0108031D8A2D0030080098
:100B3800200011105B08F1005A08F000AE252000D3
:100B4800580859040319080059088A0058080A0067
:100B5800853108002000181DB82D1810710897005D
:100B6800700896001814080071089700700896001D
:100B78000800413454342B34433457344D344F3403
:100B8800443445343D3431340D340A34003441346E
:100B980054342B344334493450344D345534583458
:100BA8003D3431340D340A340034F4007408F30051
:100BB800F30DF30D21001D087306833973069D009C
:100BC8001D14080020006E086F040319F02D6F082B
:100BD8008A006E080A008531270013120800413484
:100BE80054342B34433449345034533445344E341C
:100BF80044343D340034533445344E344434203482
:100C08004634413449344C34003470302100990062
:100C180098012200960121001A1B08000F2E0030AF
:100C280020000C1A0130E2000130F0007008E300E7
:100C38000800013021009D00F0309E009B019C01BE
:100C4800111708002000E601E801C330F300063060
:100C5800F4007F260800533445344E34443420349D
:100C68004F344B34003443344F344E344E344534CF
:100C780043345434003462346D346F34643465342E
:100C88000A34003474346D346F34643465340A348F
:100C9800003443344C344F345334453444340034F2
:100CA8001D240926A4265F251D2690230800453407
:100CB800523452344F3452340034640080010131CC
:100CC800890B622E003474082000D9007308D800FC
:100CD800080074082000EF007308EE00080074088C
:100CE8002000E1007308E000080074082000DF001D
:100CF8007308DE00080074082000D7007308D600C7
:100D0800080020006403031D0800B726080021001E
:100D18001C08F1001B08F0000800413454340D345D
:100D28000A3400342B344934503444340034270016
:100D3800131E0800E62508004F346B340A340034CB
:100D480016302100970008004334483400344334F7
:100D58004C34003420001810080020001814080033
:100D680020006908080021009D14080020001113C4
:100D780008002C3400343A3400347908080008009C
:040D88000800080057
:020000040001F9
:04000E00E4FFFFDF2D
:00000001FF
