:020000040000FA
:020000003E2898
:100008007E1480318B190B1C0B2835243C280B1FC0
:100018003C282100111C15282000111C1528082334
:100028003C282100111F25282000111F2528B7234F
:1000380071082000AD007008AC000130BF005524E5
:100048003C282100911E31282000911E31282F08BC
:100058008A002E080A0080313C282100111E3C2805
:100068002000111E3C2831088A0030080A0080311F
:100078007E1009003F282030FA01FB01840000307F
:1000880085003030F223A030840000308500203015
:10009800F2237E10200023292D08E4002C08E30019
:1000A800BF013608031D70283208403E86008701CC
:1000B80063088100B20A3208403E86006408810065
:1000C800B20A10303206031D08001030F300403029
:1000D800D3222000B20108006308F2006408F3008C
:1000E8000C30F401F501F901F801F700E430F600ED
:1000F80079217508E2007408E1007308E0007208CD
:10010800DF00D5006008D6006108D7006208D80073
:100118000A30D836D70CD60CD50C890B8D28560842
:10012800E4005508E3006408D1006308D0005930A2
:10013800A3200A30DE000630F3005930D32AD40059
:10014800D720C021CB205421DF20053E860087011F
:1001580081015408043E86005208303E8100D720B1
:10016800C021CB205421DF20033EE520D720C02129
:10017800CB205421DF20023EE520540A86002E3091
:100188008100540886005008303E8100080073083A
:10019800D3007208D2000A30F200F3015108F500CA
:1001A8005008F40008000A30F200F3015108F50085
:1001B8005008F40008007308D1007208D0005408F1
:1001C8000800860087015208303E81000800032994
:1001D8002530F3008430F400382A3F2CF82A340BF9
:1001E800F628080053240130B40008005124B40153
:1001F800080022008C12080022008C1608007908DA
:10020800D000D1015108003A03190B2922295008BE
:100218004F3A031900291C3A0319FA28073A031917
:10022800F228353A0319F1280E3A0319FD281C3A29
:100238000319F328073A0319EC2822290800F823A0
:1002480000228B170B1722008C1609302000E600BD
:100258001E30E500E430890B2F29E50B2F29E60B2A
:100268002F29000022008C1209302000E6001E30E1
:10027800E500E430890B3E29E50B3E29E60B3E29D3
:1002880000004524003A03194A29202420003F0B86
:100298004E29502020003A0B522934236400452966
:1002A800F601F7017208730403197429F801F80AB2
:1002B800F31B6129F235F30D5B29F635F70D730849
:1002C8007502031D692972087402031C70297208DB
:1002D800F4027308F53B7614F336F20CF80B612937
:1002E8007708F3007608F2000800D001D101D201A6
:1002F800D301721C87297608D0077708D13D780882
:10030800D23D7908D33DF635F70DF80DF90DF536E0
:10031800F40CF30CF20C7508740473047204031DD6
:100328007D295308F5005208F4005108F3005008DD
:10033800F20008009112AA30F2000230F3001024F3
:10034800210011129430F2000230F3000A24083020
:1003580023009F0090309D0024309E0044309B0075
:100368009C01FB012000BE011030FA00BD01BC0158
:10037800BB01210091160800720873040319DB29D8
:10038800F601F60AF31BCB29F235F30DC5297308DC
:100398007502031DD12972087402031CD72972083B
:1003A800F4027308F53BF336F20CF60BCB2975080B
:1003B800F3007408F200080022008C018E011F303F
:1003C80021008C002F308E000F3023008E00073064
:1003D8008C00103024008C008E012100951322001F
:1003E8009D0127001312121611165930F20004301D
:1003F800F30004248B1508002000B6010230832383
:100408002000BF01AC01AD01B5015124B401313068
:10041800F2000430F300FE23E530F2000330F3006D
:100428000424BA010130B300EB30F2000030F300CD
:10043800572CF2007A0803191E2A2100111A282ABB
:10044800720823009A00352A11127B08A03E860004
:10045800870172088100FB0A10307B020318FB0138
:10046800FA03210011160800F801462212000319A8
:1004780008004F24003A03193D2A462200081D228D
:10048800F80A392A7408F6007308F5007808750721
:10049800840076080318760A8500080065346E34EF
:1004A800743465347234203477346C3461346E3487
:1004B8002034703461347334733477346F34723465
:1004C80064343A340A3400343B080319682A3C0877
:1004D800203E860087010108F200BC0A08303C0271
:1004E8000318BC01210091122000BB0321009116C2
:1004F800720808002000990163309700C030960008
:100508001708AB00AA011608AA041110210011143B
:100518005830F2000430F300FE2311309800080030
:1005280010307A020318A72A3E08A03E86008701E9
:10053800010823009A002000BE0A10303E0203186A
:10054800BE01FA0A080021001112080023009D1CB0
:10055800AF2A1D121D1620003D08203E8600870187
:100568002300190881002000BD0A08303D02031845
:10057800BD01BB0A0800413454342B344334493498
:1005880050345334453452345634453452343D345F
:1005980031342C34383430340D340A340034F60015
:1005A800F50173087502031808004F24003A03196F
:1005B800D92A75087607F4008600870101081D22EC
:1005C800F50AD52A65346E347434653472342034AF
:1005D80077346C3461346E3420346E3461346D3465
:1005E80065343A340A3400343608031D022B0130CE
:1005F800B600D730F3008330F400382AB601D03083
:10060800F3008330F400382A11102B08F1002A086F
:10061800F0004223280829040319080029088A0041
:1006280028080A0083310800413454342B344334F9
:1006380057344D344F34443445343D3431340D341B
:100648000A340034413454342B344334493450345C
:100658004D34553458343D3431340D340A34003473
:10066800BA01330803193D2B3930F3008430F40004
:10067800382A3C30F3008430F400382A181D4B2BFC
:10068800181071089700700896001814080071086F
:1006980097007008960008004C346F34673467344C
:1006A800653472342034563431342E3430340A34BC
:1006B80000346234753466346634653472342034F8
:1006C8006534723472346F34723400342000670831
:1006D80068040319742B68088A0067080A008331C4
:1006E800270013120800413454342B34433449345E
:1006F8005034533445344E3444343D340034F300DC
:10070800F200F20DF20D21001D08720683397206FF
:100718009D001D140800413454342B34433457349D
:100728004A34413450343D3422340034533445344F
:100738004E34443420344634413449344C34003443
:1007480070302100990098012200960121001A1B9F
:100758000800AA2B013021009D00F0309E009B016B
:100768009C011117080021001C08F100F0011B086A
:10077800F0070318F10A0800533445344E34443462
:1007880020344F344B34003443344F344E344E34D9
:10079800453443345434003462346D346F34643433
:1007A80065340A34003474346D346F346434653419
:1007B8000A34003443344C344F34533445344434CD
:1007C800003400300C1A0130B3000130BA000800C0
:1007D8004534523452344F3452340034640080016A
:1007E8000131890BF32B0034E021A42342247E221B
:1007F800AE239E2973082000A9007208A8000800EB
:1008080073082000E8007208E70008007308200059
:10081800B1007208B000080073082000AF00720829
:10082800AE000800413454340D340A3400342B34FB
:10083800493450344434003468222000D200F9008E
:10084800EB284F346B340A34003422340D340A3424
:10085800003422342C3422340034340B0800482469
:1008680008002700131E08006A2B4334483400345C
:1008780043344C34003421009D140800163097008E
:10088800080020003B08080021009D1408002C34B3
:1008980000343A3400347A08080018100800181494
:0C08A800080011130800080008000800F8
:020000040001F9
:04000E00E4FFFFDF2D
:00000001FF
