:020000040000FA
:02000000522884
:100008007E1480310B198B1E13280B112000390820
:1000180095000130F3007308BD00872350282000A5
:10002800911E3528872323009D1C1F281D121D168D
:100038002000BC0150280A3020003C020318BC01F3
:1000480023001908F30020003C082F3E8600870192
:10005800730881000130F3007308BC0762303F2346
:100068005028111E50282100111E50287908203EC2
:1000780086008701010823009A000130F300730805
:10008800F90778087902031C502821001112F7019A
:100098007D30890B4D280F237E1009005328F60167
:1000A800F701F801F901203084000030850028307C
:1000B80068237E102000412AD3004D134E08F50016
:1000C8004D08F400DB2104302000CF003D30890BBF
:1000D8006B28CF0B6B280032BB227508D20074083E
:1000E800D1004D17CE114E08F5004D08F400DB2164
:1000F80004302000CF003D30890B8028CF0B8028AA
:100108000032BB227508D5007408D4005108540287
:10011800CF005208553BD0005308860087014F088E
:10012800C03F5008C13F530886008701403FD800B0
:10013800413FD900D91FA528D809D909D80A0319D8
:10014800D90ACE154E08F5004D08F400DB2104301D
:100158002000CF003D30890BAF28CF0BAF280032ED
:10016800BB227508D5007408D40051085402CF008A
:100178005208553BD0004C08860087014F08C03F05
:100188005008C13F4C0886008701403FD600413FD8
:10019800D700D71FD428D609D709D60A0319D70AF2
:1001A8005908803ACF005708803A4F02031DDE28CD
:1001B800560858020318E52820005708D9005608A1
:1001C800D80020005908803ACF0081304F02031D23
:1001D800EF2873305802031CF3280230080020006F
:1001E8005908803ACF0080304F02031DFD28563051
:1001F8005802031801290130080000300800ED01F9
:10020800EE010A30DA005A08E400EB01F4016D301F
:100218009E212000E5016408DA005A08F4006D30D8
:1002280093222000E6016930DA005A08CC006E08F3
:10023800CE006D08CD00673060202000DB005B0831
:10024800EC006C03031D3929023066060319532993
:100258006C08DA005A08E60007306B0203185329C5
:100268000130DA005A08EB07492902306C06031DF1
:100278004F296603031953296C08DA005A08E60067
:100288006B08031953290130EB026B08DA005A088E
:10029800F4006D309E2120006C08031D17296408A6
:1002A800DA000330DA35FF3E031D56295A35F03996
:1002B800DB005B08EC006B08DA005A08EC046630D7
:1002C800DA005A08DD006708DA005A08DE00680814
:1002D800DA005A08DF006908DA005A08E0006A08FC
:1002E800DA005A08E1006C08DA005A08E200063021
:1002F800DA005A08F4005D30F722DB005B08DC0006
:100308005C08DA005A08E300243021009D00073019
:100318002000DA005A08F4005D306A22013020001B
:10032800E4020130DA005A08E5070B3065020318C9
:1003380008000F29C9007408593E84008330031847
:10034800013E85000008F5007508C80049088600C8
:100358008701011148180115200049088600870106
:100368008111C818811520004908860087010112EB
:100378004819011620004908860087018113C81909
:1003880081172000490A860087010110481A0114C4
:100398002000490A860087018110C81A81142000AC
:1003A800490A860087010111481B01150800F7302A
:1003B800C8004808CA054A088E00003200320032D8
:1003C80020008C1200320032003220008C16C90145
:1003D800741CF0294A15F429FB30C8004808CA05DE
:1003E8004A088E000130F536F40C890BF7290032E3
:1003F800003200322000CA154A088E00003200324E
:100408000032F7302000C8004808CA054A088E00A4
:100418000130C8004808C90710304902031808000D
:10042800EC29C734403400340034CF34403400342D
:1004380000346F344034003400343F3440340034E6
:1004480000340F348934003400340F3488340034D5
:1004580000340F34A434003400340F340934013428
:1004680000340F340834013400340F342434013498
:1004780000340F3432340134003484236E233023A3
:1004880020238023742320008C1219302000EF00D1
:100498005830890B4D2AEF0B4D2A000020008C168E
:1004A800640020003D080319542ABD010B303C02AA
:1004B800031C602ABC01542A3C080319542A3C082E
:1004C800EF006F08BB00BC010321542ACB0077035F
:1004D80003190800CA0174084A020318862A4A0840
:1004E8004B07C8004808860087010108C9004A0868
:1004F800203E86008701490881000130C80048086D
:10050800CA076F2A6123F9017408C8004808F8006F
:100518000130C8004808F700210011160800C8007B
:1005280074084E3E840083300318013E850000089D
:10053800F5007508C900480A8600870101124918A4
:1005480001162000480A860087018112C918811601
:100558002000480A86008701011349190117200065
:10056800480A860087018113C919811708001530C8
:1005780021009D00000021009D149D18C12A1C081F
:100588002000C800C9014808CA004908CB00083043
:10059800CA35CB0D890BCC2A21001B082000C800C6
:1005A800C9014808CA044908CB044B08F5004A08A1
:1005B800F400080022008C018E01043023008C0016
:1005C80003308E003B3024008C001C308E0022004B
:1005D8009D131D11633021008E005F308C00951330
:1005E80022009D010800CA00CB01CC0174084C020E
:1005F80003180D2B4C084A07C800480886008701D5
:100608000108C9004908CB060130C8004808CC07D2
:10061800FA2A4B08080023001E159F159C010C3070
:100628009B001E129D171D16F6012000BC0121001B
:1006380091160B178B1708001E159F159C010C307F
:100648009B001E129D171D16F6012000BC012100FB
:1006580091160B178B17080023001E159F159C0178
:100668000C309B001E129D179E16F701F901F80128
:100678000B178B170800F2007208F000F1017008E0
:10068800B9007108BA00BD01390895000B118B1625
:100698008B17080000340134023403340434053461
:1006A80006340734083409340A340434053407346A
:1006B8000334233463346B347B34210091122300D8
:1006C8001D122000BC010800640080010131890B63
:1006D800692B003415119514151095119512080001
:1006E800F03021009E0024309D0008003A3021009F
:1006F80099009A0198010800D03027009A00080054
:0C070800DE227A2308008B120B1108007F
:020000040001F9
:04000E00FCD9FFDA40
:00000001FF
